{
  "contractName": "Factory",
  "abi": [
    {
      "constant": false,
      "inputs": [
        {
          "internalType": "string",
          "name": "_address",
          "type": "string"
        },
        {
          "internalType": "string",
          "name": "_zip",
          "type": "string"
        },
        {
          "internalType": "string",
          "name": "_city",
          "type": "string"
        },
        {
          "internalType": "uint256",
          "name": "_realtorFee",
          "type": "uint256"
        },
        {
          "internalType": "uint256",
          "name": "_price",
          "type": "uint256"
        },
        {
          "internalType": "address payable",
          "name": "_Agent",
          "type": "address"
        }
      ],
      "name": "create",
      "outputs": [
        {
          "internalType": "contract HomeTransaction",
          "name": "homeTransaction",
          "type": "address"
        }
      ],
      "payable": false,
      "stateMutability": "nonpayable",
      "type": "function"
    },
    {
      "constant": true,
      "inputs": [
        {
          "internalType": "uint256",
          "name": "index",
          "type": "uint256"
        }
      ],
      "name": "getInstance",
      "outputs": [
        {
          "internalType": "contract HomeTransaction",
          "name": "instance",
          "type": "address"
        }
      ],
      "payable": false,
      "stateMutability": "view",
      "type": "function"
    },
    {
      "constant": true,
      "inputs": [],
      "name": "getInstances",
      "outputs": [
        {
          "internalType": "contract HomeTransaction[]",
          "name": "instances",
          "type": "address[]"
        }
      ],
      "payable": false,
      "stateMutability": "view",
      "type": "function"
    },
    {
      "constant": true,
      "inputs": [],
      "name": "getInstanceCount",
      "outputs": [
        {
          "internalType": "uint256",
          "name": "count",
          "type": "uint256"
        }
      ],
      "payable": false,
      "stateMutability": "view",
      "type": "function"
    },
    {
      "constant": true,
      "inputs": [
        {
          "internalType": "uint256",
          "name": "index",
          "type": "uint256"
        }
      ],
      "name": "getInstancePrice",
      "outputs": [
        {
          "internalType": "uint256",
          "name": "",
          "type": "uint256"
        }
      ],
      "payable": false,
      "stateMutability": "view",
      "type": "function"
    },
    {
      "constant": true,
      "inputs": [
        {
          "internalType": "uint256",
          "name": "index",
          "type": "uint256"
        }
      ],
      "name": "getInstanceAddress",
      "outputs": [
        {
          "internalType": "string",
          "name": "",
          "type": "string"
        }
      ],
      "payable": false,
      "stateMutability": "view",
      "type": "function"
    },
    {
      "constant": true,
      "inputs": [
        {
          "internalType": "uint256",
          "name": "index",
          "type": "uint256"
        }
      ],
      "name": "getInstanceZIP",
      "outputs": [
        {
          "internalType": "string",
          "name": "",
          "type": "string"
        }
      ],
      "payable": false,
      "stateMutability": "view",
      "type": "function"
    },
    {
      "constant": true,
      "inputs": [
        {
          "internalType": "uint256",
          "name": "index",
          "type": "uint256"
        }
      ],
      "name": "getInstanceCity",
      "outputs": [
        {
          "internalType": "string",
          "name": "",
          "type": "string"
        }
      ],
      "payable": false,
      "stateMutability": "view",
      "type": "function"
    },
    {
      "constant": true,
      "inputs": [
        {
          "internalType": "uint256",
          "name": "index",
          "type": "uint256"
        }
      ],
      "name": "getInstanceAgentFee",
      "outputs": [
        {
          "internalType": "uint256",
          "name": "",
          "type": "uint256"
        }
      ],
      "payable": false,
      "stateMutability": "view",
      "type": "function"
    },
    {
      "constant": true,
      "inputs": [
        {
          "internalType": "uint256",
          "name": "index",
          "type": "uint256"
        }
      ],
      "name": "getInstanceSellerAddress",
      "outputs": [
        {
          "internalType": "address",
          "name": "",
          "type": "address"
        }
      ],
      "payable": false,
      "stateMutability": "view",
      "type": "function"
    },
    {
      "constant": true,
      "inputs": [
        {
          "internalType": "uint256",
          "name": "index",
          "type": "uint256"
        }
      ],
      "name": "getInstanceBuyerAddress",
      "outputs": [
        {
          "internalType": "address",
          "name": "",
          "type": "address"
        }
      ],
      "payable": false,
      "stateMutability": "view",
      "type": "function"
    },
    {
      "constant": true,
      "inputs": [
        {
          "internalType": "uint256",
          "name": "index",
          "type": "uint256"
        }
      ],
      "name": "getInstanceAgentAddress",
      "outputs": [
        {
          "internalType": "address",
          "name": "",
          "type": "address"
        }
      ],
      "payable": false,
      "stateMutability": "view",
      "type": "function"
    },
    {
      "constant": true,
      "inputs": [
        {
          "internalType": "uint256",
          "name": "index",
          "type": "uint256"
        }
      ],
      "name": "getInstanceState",
      "outputs": [
        {
          "internalType": "uint256",
          "name": "",
          "type": "uint256"
        }
      ],
      "payable": false,
      "stateMutability": "view",
      "type": "function"
    },
    {
      "constant": false,
      "inputs": [
        {
          "internalType": "uint256",
          "name": "index",
          "type": "uint256"
        }
      ],
      "name": "buyerShowsInterest",
      "outputs": [],
      "payable": true,
      "stateMutability": "payable",
      "type": "function"
    },
    {
      "constant": false,
      "inputs": [
        {
          "internalType": "uint256",
          "name": "index",
          "type": "uint256"
        }
      ],
      "name": "sellerSignContract",
      "outputs": [],
      "payable": true,
      "stateMutability": "payable",
      "type": "function"
    },
    {
      "constant": false,
      "inputs": [
        {
          "internalType": "uint256",
          "name": "index",
          "type": "uint256"
        }
      ],
      "name": "buyerSignContractAndPayDeposit",
      "outputs": [],
      "payable": true,
      "stateMutability": "payable",
      "type": "function"
    },
    {
      "constant": false,
      "inputs": [
        {
          "internalType": "uint256",
          "name": "index",
          "type": "uint256"
        },
        {
          "internalType": "bool",
          "name": "accept",
          "type": "bool"
        }
      ],
      "name": "AgentReviewedClosingConditions",
      "outputs": [],
      "payable": true,
      "stateMutability": "payable",
      "type": "function"
    },
    {
      "constant": false,
      "inputs": [
        {
          "internalType": "uint256",
          "name": "index",
          "type": "uint256"
        }
      ],
      "name": "buyerFinalizeTransaction",
      "outputs": [],
      "payable": true,
      "stateMutability": "payable",
      "type": "function"
    },
    {
      "constant": false,
      "inputs": [
        {
          "internalType": "uint256",
          "name": "index",
          "type": "uint256"
        }
      ],
      "name": "anyWithdrawFromTransaction",
      "outputs": [],
      "payable": true,
      "stateMutability": "payable",
      "type": "function"
    }
  ],
  "bytecode": "0x608060405234801561001057600080fd5b50613d5f806100206000396000f3fe6080604052600436106200012d5760003560e01c80635a61013e11620000af578063c903b45c116200006d578063c903b45c1462000839578063d35fdd7914620008b8578063e9bdc18a1462000929578063ebd348de14620009e4578063f828fa951462000a63576200012d565b80635a61013e14620004df5780635d32927814620007565780639938a3c714620007a9578063ae34325c14620007da578063c6f56def1462000808576200012d565b80631c22cc4a11620000fd5780631c22cc4a146200026657806334be341914620002e55780633ccf56b214620003385780633ed54a7914620003f35780634e9dcb5814620004ae576200012d565b8062ff4b3d146200013257806301d2d1861462000163578063035211c614620001945780631a952acf14620001e7575b600080fd5b62000161600480360360208110156200014a57600080fd5b810190808035906020019092919050505062000aa0565b005b62000192600480360360208110156200017b57600080fd5b810190808035906020019092919050505062000bbd565b005b348015620001a157600080fd5b50620001d160048036036020811015620001ba57600080fd5b810190808035906020019092919050505062000cda565b6040518082815260200191505060405180910390f35b348015620001f457600080fd5b5062000224600480360360208110156200020d57600080fd5b810190808035906020019092919050505062000e1e565b604051808273ffffffffffffffffffffffffffffffffffffffff1673ffffffffffffffffffffffffffffffffffffffff16815260200191505060405180910390f35b3480156200027357600080fd5b50620002a3600480360360208110156200028c57600080fd5b810190808035906020019092919050505062000f62565b604051808273ffffffffffffffffffffffffffffffffffffffff1673ffffffffffffffffffffffffffffffffffffffff16815260200191505060405180910390f35b348015620002f257600080fd5b5062000322600480360360208110156200030b57600080fd5b8101908080359060200190929190505050620010a6565b6040518082815260200191505060405180910390f35b3480156200034557600080fd5b5062000375600480360360208110156200035e57600080fd5b8101908080359060200190929190505050620011f6565b6040518080602001828103825283818151815260200191508051906020019080838360005b83811015620003b75780820151818401526020810190506200039a565b50505050905090810190601f168015620003e55780820380516001836020036101000a031916815260200191505b509250505060405180910390f35b3480156200040057600080fd5b5062000430600480360360208110156200041957600080fd5b8101908080359060200190929190505050620013ff565b6040518080602001828103825283818151815260200191508051906020019080838360005b838110156200047257808201518184015260208101905062000455565b50505050905090810190601f168015620004a05780820380516001836020036101000a031916815260200191505b509250505060405180910390f35b620004dd60048036036020811015620004c657600080fd5b810190808035906020019092919050505062001607565b005b348015620004ec57600080fd5b5062000714600480360360c08110156200050557600080fd5b81019080803590602001906401000000008111156200052357600080fd5b8201836020820111156200053657600080fd5b803590602001918460018302840111640100000000831117156200055957600080fd5b91908080601f016020809104026020016040519081016040528093929190818152602001838380828437600081840152601f19601f82011690508083019250505050505050919291929080359060200190640100000000811115620005bd57600080fd5b820183602082011115620005d057600080fd5b80359060200191846001830284011164010000000083111715620005f357600080fd5b91908080601f016020809104026020016040519081016040528093929190818152602001838380828437600081840152601f19601f820116905080830192505050505050509192919290803590602001906401000000008111156200065757600080fd5b8201836020820111156200066a57600080fd5b803590602001918460018302840111640100000000831117156200068d57600080fd5b91908080601f016020809104026020016040519081016040528093929190818152602001838380828437600081840152601f19601f8201169050808301925050505050505091929192908035906020019092919080359060200190929190803573ffffffffffffffffffffffffffffffffffffffff16906020019092919050505062001724565b604051808273ffffffffffffffffffffffffffffffffffffffff1673ffffffffffffffffffffffffffffffffffffffff16815260200191505060405180910390f35b3480156200076357600080fd5b5062000793600480360360208110156200077c57600080fd5b8101908080359060200190929190505050620019c3565b6040518082815260200191505060405180910390f35b620007d860048036036020811015620007c157600080fd5b810190808035906020019092919050505062001b07565b005b348015620007e757600080fd5b50620007f262001c24565b6040518082815260200191505060405180910390f35b62000837600480360360208110156200082057600080fd5b810190808035906020019092919050505062001c30565b005b3480156200084657600080fd5b5062000876600480360360208110156200085f57600080fd5b810190808035906020019092919050505062001d4d565b604051808273ffffffffffffffffffffffffffffffffffffffff1673ffffffffffffffffffffffffffffffffffffffff16815260200191505060405180910390f35b348015620008c557600080fd5b50620008d062001e91565b6040518080602001828103825283818151815260200191508051906020019060200280838360005b8381101562000915578082015181840152602081019050620008f8565b505050509050019250505060405180910390f35b3480156200093657600080fd5b5062000966600480360360208110156200094f57600080fd5b810190808035906020019092919050505062001f21565b6040518080602001828103825283818151815260200191508051906020019080838360005b83811015620009a85780820151818401526020810190506200098b565b50505050905090810190601f168015620009d65780820380516001836020036101000a031916815260200191505b509250505060405180910390f35b348015620009f157600080fd5b5062000a216004803603602081101562000a0a57600080fd5b81019080803590602001909291905050506200212a565b604051808273ffffffffffffffffffffffffffffffffffffffff1673ffffffffffffffffffffffffffffffffffffffff16815260200191505060405180910390f35b62000a9e6004803603604081101562000a7b57600080fd5b8101908080359060200190929190803515159060200190929190505050620021e6565b005b600080549050811062000b1b576040517f08c379a00000000000000000000000000000000000000000000000000000000081526004018080602001828103825260128152602001807f696e646578206f7574206f662072616e6765000000000000000000000000000081525060200191505060405180910390fd5b600080828154811062000b2a57fe5b9060005260206000200160009054906101000a900473ffffffffffffffffffffffffffffffffffffffff1690508073ffffffffffffffffffffffffffffffffffffffff166318be633f6040518163ffffffff1660e01b8152600401600060405180830381600087803b15801562000ba057600080fd5b505af115801562000bb5573d6000803e3d6000fd5b505050505050565b600080549050811062000c38576040517f08c379a00000000000000000000000000000000000000000000000000000000081526004018080602001828103825260128152602001807f696e646578206f7574206f662072616e6765000000000000000000000000000081525060200191505060405180910390fd5b600080828154811062000c4757fe5b9060005260206000200160009054906101000a900473ffffffffffffffffffffffffffffffffffffffff1690508073ffffffffffffffffffffffffffffffffffffffff1663202dfc706040518163ffffffff1660e01b8152600401600060405180830381600087803b15801562000cbd57600080fd5b505af115801562000cd2573d6000803e3d6000fd5b505050505050565b60008080549050821062000d56576040517f08c379a00000000000000000000000000000000000000000000000000000000081526004018080602001828103825260128152602001807f696e646578206f7574206f662072616e6765000000000000000000000000000081525060200191505060405180910390fd5b600080838154811062000d6557fe5b9060005260206000200160009054906101000a900473ffffffffffffffffffffffffffffffffffffffff1690508073ffffffffffffffffffffffffffffffffffffffff1663a035b1fe6040518163ffffffff1660e01b815260040160206040518083038186803b15801562000dd957600080fd5b505afa15801562000dee573d6000803e3d6000fd5b505050506040513d602081101562000e0557600080fd5b8101908080519060200190929190505050915050919050565b60008080549050821062000e9a576040517f08c379a00000000000000000000000000000000000000000000000000000000081526004018080602001828103825260128152602001807f696e646578206f7574206f662072616e6765000000000000000000000000000081525060200191505060405180910390fd5b600080838154811062000ea957fe5b9060005260206000200160009054906101000a900473ffffffffffffffffffffffffffffffffffffffff1690508073ffffffffffffffffffffffffffffffffffffffff16637150d8ae6040518163ffffffff1660e01b815260040160206040518083038186803b15801562000f1d57600080fd5b505afa15801562000f32573d6000803e3d6000fd5b505050506040513d602081101562000f4957600080fd5b8101908080519060200190929190505050915050919050565b60008080549050821062000fde576040517f08c379a00000000000000000000000000000000000000000000000000000000081526004018080602001828103825260128152602001807f696e646578206f7574206f662072616e6765000000000000000000000000000081525060200191505060405180910390fd5b600080838154811062000fed57fe5b9060005260206000200160009054906101000a900473ffffffffffffffffffffffffffffffffffffffff1690508073ffffffffffffffffffffffffffffffffffffffff166308551a536040518163ffffffff1660e01b815260040160206040518083038186803b1580156200106157600080fd5b505afa15801562001076573d6000803e3d6000fd5b505050506040513d60208110156200108d57600080fd5b8101908080519060200190929190505050915050919050565b60008080549050821062001122576040517f08c379a00000000000000000000000000000000000000000000000000000000081526004018080602001828103825260128152602001807f696e646578206f7574206f662072616e6765000000000000000000000000000081525060200191505060405180910390fd5b60008083815481106200113157fe5b9060005260206000200160009054906101000a900473ffffffffffffffffffffffffffffffffffffffff1690508073ffffffffffffffffffffffffffffffffffffffff166385209ee06040518163ffffffff1660e01b815260040160206040518083038186803b158015620011a557600080fd5b505afa158015620011ba573d6000803e3d6000fd5b505050506040513d6020811015620011d157600080fd5b81019080805190602001909291905050506006811115620011ee57fe5b915050919050565b6060600080549050821062001273576040517f08c379a00000000000000000000000000000000000000000000000000000000081526004018080602001828103825260128152602001807f696e646578206f7574206f662072616e6765000000000000000000000000000081525060200191505060405180910390fd5b60008083815481106200128257fe5b9060005260206000200160009054906101000a900473ffffffffffffffffffffffffffffffffffffffff1690508073ffffffffffffffffffffffffffffffffffffffff1663fd0160fe6040518163ffffffff1660e01b815260040160006040518083038186803b158015620012f657600080fd5b505afa1580156200130b573d6000803e3d6000fd5b505050506040513d6000823e3d601f19601f8201168201806040525060208110156200133657600080fd5b81019080805160405193929190846401000000008211156200135757600080fd5b838201915060208201858111156200136e57600080fd5b82518660018202830111640100000000821117156200138c57600080fd5b8083526020830192505050908051906020019080838360005b83811015620013c2578082015181840152602081019050620013a5565b50505050905090810190601f168015620013f05780820380516001836020036101000a031916815260200191505b50604052505050915050919050565b606060008054905082106200147c576040517f08c379a00000000000000000000000000000000000000000000000000000000081526004018080602001828103825260128152602001807f696e646578206f7574206f662072616e6765000000000000000000000000000081525060200191505060405180910390fd5b60008083815481106200148b57fe5b9060005260206000200160009054906101000a900473ffffffffffffffffffffffffffffffffffffffff1690508073ffffffffffffffffffffffffffffffffffffffff16629190556040518163ffffffff1660e01b815260040160006040518083038186803b158015620014fe57600080fd5b505afa15801562001513573d6000803e3d6000fd5b505050506040513d6000823e3d601f19601f8201168201806040525060208110156200153e57600080fd5b81019080805160405193929190846401000000008211156200155f57600080fd5b838201915060208201858111156200157657600080fd5b82518660018202830111640100000000821117156200159457600080fd5b8083526020830192505050908051906020019080838360005b83811015620015ca578082015181840152602081019050620015ad565b50505050905090810190601f168015620015f85780820380516001836020036101000a031916815260200191505b50604052505050915050919050565b600080549050811062001682576040517f08c379a00000000000000000000000000000000000000000000000000000000081526004018080602001828103825260128152602001807f696e646578206f7574206f662072616e6765000000000000000000000000000081525060200191505060405180910390fd5b60008082815481106200169157fe5b9060005260206000200160009054906101000a900473ffffffffffffffffffffffffffffffffffffffff1690508073ffffffffffffffffffffffffffffffffffffffff16632323f8f56040518163ffffffff1660e01b8152600401600060405180830381600087803b1580156200170757600080fd5b505af11580156200171c573d6000803e3d6000fd5b505050505050565b600086868686868633336040516200173c9062002313565b808060200180602001806020018981526020018881526020018773ffffffffffffffffffffffffffffffffffffffff1673ffffffffffffffffffffffffffffffffffffffff1681526020018673ffffffffffffffffffffffffffffffffffffffff1673ffffffffffffffffffffffffffffffffffffffff1681526020018573ffffffffffffffffffffffffffffffffffffffff1673ffffffffffffffffffffffffffffffffffffffff16815260200184810384528c818151815260200191508051906020019080838360005b838110156200182557808201518184015260208101905062001808565b50505050905090810190601f168015620018535780820380516001836020036101000a031916815260200191505b5084810383528b818151815260200191508051906020019080838360005b838110156200188e57808201518184015260208101905062001871565b50505050905090810190601f168015620018bc5780820380516001836020036101000a031916815260200191505b5084810382528a818151815260200191508051906020019080838360005b83811015620018f7578082015181840152602081019050620018da565b50505050905090810190601f168015620019255780820380516001836020036101000a031916815260200191505b509b505050505050505050505050604051809103906000f08015801562001950573d6000803e3d6000fd5b50905060008190806001815401808255809150509060018203906000526020600020016000909192909190916101000a81548173ffffffffffffffffffffffffffffffffffffffff021916908373ffffffffffffffffffffffffffffffffffffffff160217905550509695505050505050565b60008080549050821062001a3f576040517f08c379a00000000000000000000000000000000000000000000000000000000081526004018080602001828103825260128152602001807f696e646578206f7574206f662072616e6765000000000000000000000000000081525060200191505060405180910390fd5b600080838154811062001a4e57fe5b9060005260206000200160009054906101000a900473ffffffffffffffffffffffffffffffffffffffff1690508073ffffffffffffffffffffffffffffffffffffffff1663bd3834736040518163ffffffff1660e01b815260040160206040518083038186803b15801562001ac257600080fd5b505afa15801562001ad7573d6000803e3d6000fd5b505050506040513d602081101562001aee57600080fd5b8101908080519060200190929190505050915050919050565b600080549050811062001b82576040517f08c379a00000000000000000000000000000000000000000000000000000000081526004018080602001828103825260128152602001807f696e646578206f7574206f662072616e6765000000000000000000000000000081525060200191505060405180910390fd5b600080828154811062001b9157fe5b9060005260206000200160009054906101000a900473ffffffffffffffffffffffffffffffffffffffff1690508073ffffffffffffffffffffffffffffffffffffffff16634ed523e96040518163ffffffff1660e01b8152600401600060405180830381600087803b15801562001c0757600080fd5b505af115801562001c1c573d6000803e3d6000fd5b505050505050565b60008080549050905090565b600080549050811062001cab576040517f08c379a00000000000000000000000000000000000000000000000000000000081526004018080602001828103825260128152602001807f696e646578206f7574206f662072616e6765000000000000000000000000000081525060200191505060405180910390fd5b600080828154811062001cba57fe5b9060005260206000200160009054906101000a900473ffffffffffffffffffffffffffffffffffffffff1690508073ffffffffffffffffffffffffffffffffffffffff1663ba0892d96040518163ffffffff1660e01b8152600401600060405180830381600087803b15801562001d3057600080fd5b505af115801562001d45573d6000803e3d6000fd5b505050505050565b60008080549050821062001dc9576040517f08c379a00000000000000000000000000000000000000000000000000000000081526004018080602001828103825260128152602001807f696e646578206f7574206f662072616e6765000000000000000000000000000081525060200191505060405180910390fd5b600080838154811062001dd857fe5b9060005260206000200160009054906101000a900473ffffffffffffffffffffffffffffffffffffffff1690508073ffffffffffffffffffffffffffffffffffffffff16639068ed176040518163ffffffff1660e01b815260040160206040518083038186803b15801562001e4c57600080fd5b505afa15801562001e61573d6000803e3d6000fd5b505050506040513d602081101562001e7857600080fd5b8101908080519060200190929190505050915050919050565b6060600080548060200260200160405190810160405280929190818152602001828054801562001f1757602002820191906000526020600020905b8160009054906101000a900473ffffffffffffffffffffffffffffffffffffffff1673ffffffffffffffffffffffffffffffffffffffff168152602001906001019080831162001ecc575b5050505050905090565b6060600080549050821062001f9e576040517f08c379a00000000000000000000000000000000000000000000000000000000081526004018080602001828103825260128152602001807f696e646578206f7574206f662072616e6765000000000000000000000000000081525060200191505060405180910390fd5b600080838154811062001fad57fe5b9060005260206000200160009054906101000a900473ffffffffffffffffffffffffffffffffffffffff1690508073ffffffffffffffffffffffffffffffffffffffff1663f629ad306040518163ffffffff1660e01b815260040160006040518083038186803b1580156200202157600080fd5b505afa15801562002036573d6000803e3d6000fd5b505050506040513d6000823e3d601f19601f8201168201806040525060208110156200206157600080fd5b81019080805160405193929190846401000000008211156200208257600080fd5b838201915060208201858111156200209957600080fd5b8251866001820283011164010000000082111715620020b757600080fd5b8083526020830192505050908051906020019080838360005b83811015620020ed578082015181840152602081019050620020d0565b50505050905090810190601f1680156200211b5780820380516001836020036101000a031916815260200191505b50604052505050915050919050565b600080805490508210620021a6576040517f08c379a00000000000000000000000000000000000000000000000000000000081526004018080602001828103825260128152602001807f696e646578206f7574206f662072616e6765000000000000000000000000000081525060200191505060405180910390fd5b60008281548110620021b457fe5b9060005260206000200160009054906101000a900473ffffffffffffffffffffffffffffffffffffffff169050919050565b600080549050821062002261576040517f08c379a00000000000000000000000000000000000000000000000000000000081526004018080602001828103825260128152602001807f696e646578206f7574206f662072616e6765000000000000000000000000000081525060200191505060405180910390fd5b60008083815481106200227057fe5b9060005260206000200160009054906101000a900473ffffffffffffffffffffffffffffffffffffffff1690508073ffffffffffffffffffffffffffffffffffffffff1663c7297f7b836040518263ffffffff1660e01b81526004018082151515158152602001915050600060405180830381600087803b158015620022f557600080fd5b505af11580156200230a573d6000803e3d6000fd5b50505050505050565b611a0980620023228339019056fe608060405260008060006101000a81548160ff021916908360068111156200002357fe5b02179055506000600a60006101000a81548160ff021916908360028111156200004857fe5b02179055503480156200005a57600080fd5b5060405162001a0938038062001a0983398181016040526101008110156200008157600080fd5b8101908080516040519392919084640100000000821115620000a257600080fd5b83820191506020820185811115620000b957600080fd5b8251866001820283011164010000000082111715620000d757600080fd5b8083526020830192505050908051906020019080838360005b838110156200010d578082015181840152602081019050620000f0565b50505050905090810190601f1680156200013b5780820380516001836020036101000a031916815260200191505b50604052602001805160405193929190846401000000008211156200015f57600080fd5b838201915060208201858111156200017657600080fd5b82518660018202830111640100000000821117156200019457600080fd5b8083526020830192505050908051906020019080838360005b83811015620001ca578082015181840152602081019050620001ad565b50505050905090810190601f168015620001f85780820380516001836020036101000a031916815260200191505b50604052602001805160405193929190846401000000008211156200021c57600080fd5b838201915060208201858111156200023357600080fd5b82518660018202830111640100000000821117156200025157600080fd5b8083526020830192505050908051906020019080838360005b83811015620002875780820151818401526020810190506200026a565b50505050905090810190601f168015620002b55780820380516001836020036101000a031916815260200191505b506040526020018051906020019092919080519060200190929190805190602001909291908051906020019092919080519060200190929190505050848410156200034c576040517f08c379a0000000000000000000000000000000000000000000000000000000008152600401808060200182810382526026815260200180620019e36026913960400191505060405180910390fd5b82600060016101000a81548173ffffffffffffffffffffffffffffffffffffffff021916908373ffffffffffffffffffffffffffffffffffffffff16021790555081600160006101000a81548173ffffffffffffffffffffffffffffffffffffffff021916908373ffffffffffffffffffffffffffffffffffffffff16021790555080600260006101000a81548173ffffffffffffffffffffffffffffffffffffffff021916908373ffffffffffffffffffffffffffffffffffffffff16021790555087600390805190602001906200042792919062000476565b5086600490805190602001906200044092919062000476565b5085600590805190602001906200045992919062000476565b508360078190555084600681905550505050505050505062000525565b828054600181600116156101000203166002900490600052602060002090601f016020900481019282601f10620004b957805160ff1916838001178555620004ea565b82800160010185558215620004ea579182015b82811115620004e9578251825591602001919060010190620004cc565b5b509050620004f99190620004fd565b5090565b6200052291905b808211156200051e57600081600090555060010162000504565b5090565b90565b6114ae80620005356000396000f3fe6080604052600436106100fd5760003560e01c80639068ed1711610095578063bd38347311610064578063bd38347314610358578063c7297f7b14610383578063d0e30db0146103c0578063f629ad30146103eb578063fd0160fe1461047b576100fd565b80639068ed17146102a1578063a035b1fe146102f8578063a0cb23cd14610323578063ba0892d91461034e576100fd565b80632323f8f5116100d15780632323f8f5146101fd5780634ed523e9146102075780637150d8ae1461021157806385209ee014610268576100fd565b80629190551461010257806308551a531461019257806318be633f146101e9578063202dfc70146101f3575b600080fd5b34801561010e57600080fd5b5061011761050b565b6040518080602001828103825283818151815260200191508051906020019080838360005b8381101561015757808201518184015260208101905061013c565b50505050905090810190601f1680156101845780820380516001836020036101000a031916815260200191505b509250505060405180910390f35b34801561019e57600080fd5b506101a76105a9565b604051808273ffffffffffffffffffffffffffffffffffffffff1673ffffffffffffffffffffffffffffffffffffffff16815260200191505060405180910390f35b6101f16105cf565b005b6101fb610792565b005b610205610892565b005b61020f610b2f565b005b34801561021d57600080fd5b50610226610d3a565b604051808273ffffffffffffffffffffffffffffffffffffffff1673ffffffffffffffffffffffffffffffffffffffff16815260200191505060405180910390f35b34801561027457600080fd5b5061027d610d60565b6040518082600681111561028d57fe5b60ff16815260200191505060405180910390f35b3480156102ad57600080fd5b506102b6610d72565b604051808273ffffffffffffffffffffffffffffffffffffffff1673ffffffffffffffffffffffffffffffffffffffff16815260200191505060405180910390f35b34801561030457600080fd5b5061030d610d98565b6040518082815260200191505060405180910390f35b34801561032f57600080fd5b50610338610d9e565b6040518082815260200191505060405180910390f35b610356610da4565b005b34801561036457600080fd5b5061036d610ff0565b6040518082815260200191505060405180910390f35b34801561038f57600080fd5b506103be600480360360208110156103a657600080fd5b81019080803515159060200190929190505050610ff6565b005b3480156103cc57600080fd5b506103d561123e565b6040518082815260200191505060405180910390f35b3480156103f757600080fd5b50610400611244565b6040518080602001828103825283818151815260200191508051906020019080838360005b83811015610440578082015181840152602081019050610425565b50505050905090810190601f16801561046d5780820380516001836020036101000a031916815260200191505b509250505060405180910390f35b34801561048757600080fd5b506104906112e2565b6040518080602001828103825283818151815260200191508051906020019080838360005b838110156104d05780820151818401526020810190506104b5565b50505050905090810190601f1680156104fd5780820380516001836020036101000a031916815260200191505b509250505060405180910390f35b60048054600181600116156101000203166002900480601f0160208091040260200160405190810160405280929190818152602001828054600181600116156101000203166002900480156105a15780601f10610576576101008083540402835291602001916105a1565b820191906000526020600020905b81548152906001019060200180831161058457829003601f168201915b505050505081565b600160009054906101000a900473ffffffffffffffffffffffffffffffffffffffff1681565b3373ffffffffffffffffffffffffffffffffffffffff16600160009054906101000a900473ffffffffffffffffffffffffffffffffffffffff1673ffffffffffffffffffffffffffffffffffffffff1614610692576040517f08c379a000000000000000000000000000000000000000000000000000000000815260040180806020018281038252601d8152602001807f4f6e6c792073656c6c65722063616e207369676e20636f6e747261637400000081525060200191505060405180910390fd5b6001600681111561069f57fe5b6000809054906101000a900460ff1660068111156106b957fe5b1461072c576040517f08c379a00000000000000000000000000000000000000000000000000000000081526004018080602001828103825260148152602001807f57726f6e6720636f6e747261637420737461746500000000000000000000000081525060200191505060405180910390fd5b60026000806101000a81548160ff0219169083600681111561074a57fe5b021790555033600260006101000a81548173ffffffffffffffffffffffffffffffffffffffff021916908373ffffffffffffffffffffffffffffffffffffffff160217905550565b6000600681111561079f57fe5b6000809054906101000a900460ff1660068111156107b957fe5b1461082c576040517f08c379a00000000000000000000000000000000000000000000000000000000081526004018080602001828103825260148152602001807f57726f6e6720636f6e747261637420737461746500000000000000000000000081525060200191505060405180910390fd5b60016000806101000a81548160ff0219169083600681111561084a57fe5b021790555033600260006101000a81548173ffffffffffffffffffffffffffffffffffffffff021916908373ffffffffffffffffffffffffffffffffffffffff160217905550565b3373ffffffffffffffffffffffffffffffffffffffff16600260009054906101000a900473ffffffffffffffffffffffffffffffffffffffff1673ffffffffffffffffffffffffffffffffffffffff1614610938576040517f08c379a00000000000000000000000000000000000000000000000000000000081526004018080602001828103825260238152602001806114576023913960400191505060405180910390fd5b6004600681111561094557fe5b6000809054906101000a900460ff16600681111561095f57fe5b146109d2576040517f08c379a00000000000000000000000000000000000000000000000000000000081526004018080602001828103825260148152602001807f57726f6e6720636f6e747261637420737461746500000000000000000000000081525060200191505060405180910390fd5b600754600854340114610a30576040517f08c379a000000000000000000000000000000000000000000000000000000000815260040180806020018281038252603f8152602001806113dc603f913960400191505060405180910390fd5b60056000806101000a81548160ff02191690836006811115610a4e57fe5b0217905550600160009054906101000a900473ffffffffffffffffffffffffffffffffffffffff1673ffffffffffffffffffffffffffffffffffffffff166108fc600654600754039081150290604051600060405180830381858888f19350505050158015610ac1573d6000803e3d6000fd5b50600060019054906101000a900473ffffffffffffffffffffffffffffffffffffffff1673ffffffffffffffffffffffffffffffffffffffff166108fc6006549081150290604051600060405180830381858888f19350505050158015610b2c573d6000803e3d6000fd5b50565b3373ffffffffffffffffffffffffffffffffffffffff16600260009054906101000a900473ffffffffffffffffffffffffffffffffffffffff1673ffffffffffffffffffffffffffffffffffffffff1614610bf2576040517f08c379a000000000000000000000000000000000000000000000000000000000815260040180806020018281038252601c8152602001807f4f6e6c792062757965722063616e207369676e20636f6e74726163740000000081525060200191505060405180910390fd5b60026006811115610bff57fe5b6000809054906101000a900460ff166006811115610c1957fe5b14610c8c576040517f08c379a00000000000000000000000000000000000000000000000000000000081526004018080602001828103825260148152602001807f57726f6e6720636f6e747261637420737461746500000000000000000000000081525060200191505060405180910390fd5b606460016007540281610c9b57fe5b043410158015610cad57506007543411155b610d02576040517f08c379a000000000000000000000000000000000000000000000000000000000815260040180806020018281038252603c81526020018061141b603c913960400191505060405180910390fd5b60036000806101000a81548160ff02191690836006811115610d2057fe5b021790555034600881905550621275004201600981905550565b600260009054906101000a900473ffffffffffffffffffffffffffffffffffffffff1681565b6000809054906101000a900460ff1681565b600060019054906101000a900473ffffffffffffffffffffffffffffffffffffffff1681565b60075481565b60095481565b3373ffffffffffffffffffffffffffffffffffffffff16600260009054906101000a900473ffffffffffffffffffffffffffffffffffffffff1673ffffffffffffffffffffffffffffffffffffffff161480610e0257504260095411155b610e57576040517f08c379a00000000000000000000000000000000000000000000000000000000081526004018080602001828103825260338152602001806113816033913960400191505060405180910390fd5b60046006811115610e6457fe5b6000809054906101000a900460ff166006811115610e7e57fe5b14610ef1576040517f08c379a00000000000000000000000000000000000000000000000000000000081526004018080602001828103825260148152602001807f57726f6e6720636f6e747261637420737461746500000000000000000000000081525060200191505060405180910390fd5b60066000806101000a81548160ff02191690836006811115610f0f57fe5b0217905550600160009054906101000a900473ffffffffffffffffffffffffffffffffffffffff1673ffffffffffffffffffffffffffffffffffffffff166108fc600654600854039081150290604051600060405180830381858888f19350505050158015610f82573d6000803e3d6000fd5b50600060019054906101000a900473ffffffffffffffffffffffffffffffffffffffff1673ffffffffffffffffffffffffffffffffffffffff166108fc6006549081150290604051600060405180830381858888f19350505050158015610fed573d6000803e3d6000fd5b50565b60065481565b3373ffffffffffffffffffffffffffffffffffffffff16600060019054906101000a900473ffffffffffffffffffffffffffffffffffffffff1673ffffffffffffffffffffffffffffffffffffffff161461109c576040517f08c379a00000000000000000000000000000000000000000000000000000000081526004018080602001828103825260288152602001806113b46028913960400191505060405180910390fd5b600360068111156110a957fe5b6000809054906101000a900460ff1660068111156110c357fe5b14611136576040517f08c379a00000000000000000000000000000000000000000000000000000000081526004018080602001828103825260148152602001807f57726f6e6720636f6e747261637420737461746500000000000000000000000081525060200191505060405180910390fd5b8015611188576001600a60006101000a81548160ff0219169083600281111561115b57fe5b021790555060046000806101000a81548160ff0219169083600681111561117e57fe5b021790555061123b565b6000600a60006101000a81548160ff021916908360028111156111a757fe5b021790555060008060006101000a81548160ff021916908360068111156111ca57fe5b0217905550600260009054906101000a900473ffffffffffffffffffffffffffffffffffffffff1673ffffffffffffffffffffffffffffffffffffffff166108fc6008549081150290604051600060405180830381858888f19350505050158015611239573d6000803e3d6000fd5b505b50565b60085481565b60038054600181600116156101000203166002900480601f0160208091040260200160405190810160405280929190818152602001828054600181600116156101000203166002900480156112da5780601f106112af576101008083540402835291602001916112da565b820191906000526020600020905b8154815290600101906020018083116112bd57829003601f168201915b505050505081565b60058054600181600116156101000203166002900480601f0160208091040260200160405190810160405280929190818152602001828054600181600116156101000203166002900480156113785780601f1061134d57610100808354040283529160200191611378565b820191906000526020600020905b81548152906001019060200180831161135b57829003601f168201915b50505050508156fe4f6e6c792062757965722063616e207769746864726177206265666f7265207472616e73616374696f6e20646561646c696e654f6e6c79204167656e742063616e2072657669657720636c6f73696e6720636f6e646974696f6e734275796572206e6565647320746f20706179207468652072657374206f662074686520636f737420746f2066696e616c697a65207472616e73616374696f6e4275796572206e6565647320746f206465706f736974206265747765656e2031302520616e64203130302520746f207369676e20636f6e74726163744f6e6c792062757965722063616e2066696e616c697a65207472616e73616374696f6ea265627a7a72315820fc1467328c8154606051f9da55a17291e408d9190525fb5401f4e23384c65dd064736f6c634300051100325072696365206e6565647320746f206265206d6f7265207468616e204167656e742066656521a265627a7a72315820d20ef7ed496e568928d4ec45da0a7197b01e987b469e768effbc4939b86c35db64736f6c63430005110032",
  "source": "pragma solidity >=0.4.25 <0.6.0;\r\n\r\nimport \"./HomeTransaction.sol\";\r\n\r\ncontract Factory {\r\n  HomeTransaction[] contracts;\r\n  \r\n        \r\n  function create(\r\n        string memory _address,\r\n        string memory _zip,\r\n        string memory _city,\r\n        uint _realtorFee,\r\n        uint _price,\r\n        address payable _Agent) public returns(HomeTransaction homeTransaction)  {\r\n    homeTransaction = new HomeTransaction(\r\n      _address,\r\n      _zip,\r\n      _city,\r\n      _realtorFee,\r\n      _price,\r\n      _Agent,\r\n     msg.sender,\r\n      msg.sender);\r\n    contracts.push(homeTransaction);\r\n  }\r\n\r\n  function getInstance(uint index) public view returns (HomeTransaction instance) {\r\n    require(index < contracts.length, \"index out of range\");\r\n\r\n    instance = contracts[index];\r\n  }\r\n\r\n  function getInstances() public view returns (HomeTransaction[] memory instances) {\r\n    instances = contracts;\r\n  }\r\n\r\n  function getInstanceCount() public view returns (uint count) {\r\n    count = contracts.length;\r\n  }\r\n  function getInstancePrice(uint index) public view returns (uint) {\r\n   require(index < contracts.length, \"index out of range\");\r\n\r\n    HomeTransaction instance = contracts[index];\r\n    return instance.price();\r\n  }\r\n function getInstanceAddress(uint index) public view returns (string memory) {\r\n    require(index < contracts.length, \"index out of range\");\r\n\r\n    HomeTransaction instance = contracts[index];\r\n    return instance.homeAddress();\r\n  }\r\n  function getInstanceZIP(uint index) public view returns (string memory) {\r\n    require(index < contracts.length, \"index out of range\");\r\n\r\n    HomeTransaction instance = contracts[index];\r\n    return instance.zip();\r\n  }\r\n  function getInstanceCity(uint index) public view returns (string memory) {\r\n    require(index < contracts.length, \"index out of range\");\r\n\r\n    HomeTransaction instance = contracts[index];\r\n    return instance.city();\r\n  }\r\n  function getInstanceAgentFee(uint index) public view returns (uint) {\r\n    require(index < contracts.length, \"index out of range\");\r\n\r\n    HomeTransaction instance = contracts[index];\r\n    return instance.AgentFee();\r\n  }\r\n  function getInstanceSellerAddress(uint index) public view returns (address ) {\r\n    require(index < contracts.length, \"index out of range\");\r\n\r\n    HomeTransaction instance = contracts[index];\r\n    return instance.seller();\r\n  }\r\n  function getInstanceBuyerAddress(uint index) public view returns (address ) {\r\n    require(index < contracts.length, \"index out of range\");\r\n\r\n    HomeTransaction instance = contracts[index];\r\n    return instance.buyer();\r\n  }\r\n  function getInstanceAgentAddress(uint index) public view returns (address ) {\r\n    require(index < contracts.length, \"index out of range\");\r\n\r\n    HomeTransaction instance = contracts[index];\r\n    return instance.Agent();\r\n  }\r\n  function getInstanceState(uint index) public view returns (uint ) {\r\n    require(index < contracts.length, \"index out of range\");\r\n\r\n    HomeTransaction instance = contracts[index];\r\n    return uint(instance.contractState());\r\n  }\r\n  function buyerShowsInterest(uint index) public payable\r\n{\r\n    require(index < contracts.length, \"index out of range\");\r\n    HomeTransaction instance = contracts[index];\r\n   instance.buyerShowsInterest();\r\n}\r\nfunction sellerSignContract(uint index) public payable\r\n{\r\n    require(index < contracts.length, \"index out of range\");\r\n    HomeTransaction instance = contracts[index];\r\n   instance.sellerSignContract();\r\n}\r\nfunction buyerSignContractAndPayDeposit(uint index) public payable\r\n{\r\n    require(index < contracts.length, \"index out of range\");\r\n    HomeTransaction instance = contracts[index];\r\n   instance.buyerSignContractAndPayDeposit();\r\n}\r\nfunction AgentReviewedClosingConditions(uint index,bool accept) public payable\r\n{\r\n    require(index < contracts.length, \"index out of range\");\r\n    HomeTransaction instance = contracts[index];\r\n   instance.AgentReviewedClosingConditions(accept);\r\n}\r\nfunction buyerFinalizeTransaction(uint index) public payable\r\n{\r\n    require(index < contracts.length, \"index out of range\");\r\n    HomeTransaction instance = contracts[index];\r\n   instance.buyerFinalizeTransaction();\r\n}\r\nfunction anyWithdrawFromTransaction(uint index) public payable\r\n{\r\n    require(index < contracts.length, \"index out of range\");\r\n    HomeTransaction instance = contracts[index];\r\n   instance.anyWithdrawFromTransaction();\r\n}\r\n  \r\n}",
  "sourcePath": "C:/Users/User/Desktop/Smart Contract/project/contracts/Factory.sol",
  "compiler": {
    "name": "solc",
    "version": "0.5.17+commit.d19bba13.Emscripten.clang"
  },
  "schemaVersion": "3.4.1",
  "updatedAt": "2021-05-30T14:49:18.301Z",
  "networkType": "ethereum",
  "devdoc": {
    "methods": {}
  },
  "userdoc": {
    "methods": {}
  }
}