{
  "contractName": "Factory",
  "abi": [
    {
      "constant": false,
      "inputs": [
        {
          "internalType": "string",
          "name": "_address",
          "type": "string"
        },
        {
          "internalType": "string",
          "name": "_zip",
          "type": "string"
        },
        {
          "internalType": "uint256",
          "name": "_realtorFee",
          "type": "uint256"
        },
        {
          "internalType": "uint256",
          "name": "_price",
          "type": "uint256"
        },
        {
          "internalType": "uint256",
          "name": "_proptype",
          "type": "uint256"
        },
        {
          "internalType": "uint256",
          "name": "_acco",
          "type": "uint256"
        },
        {
          "internalType": "uint256",
          "name": "_proparea",
          "type": "uint256"
        },
        {
          "internalType": "string",
          "name": "_district",
          "type": "string"
        },
        {
          "internalType": "address payable",
          "name": "_Agent",
          "type": "address"
        }
      ],
      "name": "create",
      "outputs": [
        {
          "internalType": "contract HomeTransaction",
          "name": "homeTransaction",
          "type": "address"
        }
      ],
      "payable": false,
      "stateMutability": "nonpayable",
      "type": "function"
    },
    {
      "constant": true,
      "inputs": [
        {
          "internalType": "uint256",
          "name": "index",
          "type": "uint256"
        }
      ],
      "name": "getInstance",
      "outputs": [
        {
          "internalType": "contract HomeTransaction",
          "name": "instance",
          "type": "address"
        }
      ],
      "payable": false,
      "stateMutability": "view",
      "type": "function"
    },
    {
      "constant": true,
      "inputs": [
        {
          "internalType": "uint256",
          "name": "index",
          "type": "uint256"
        }
      ],
      "name": "getLastOpsTime",
      "outputs": [
        {
          "internalType": "uint256",
          "name": "",
          "type": "uint256"
        }
      ],
      "payable": false,
      "stateMutability": "view",
      "type": "function"
    },
    {
      "constant": true,
      "inputs": [],
      "name": "getInstances",
      "outputs": [
        {
          "internalType": "contract HomeTransaction[]",
          "name": "instances",
          "type": "address[]"
        }
      ],
      "payable": false,
      "stateMutability": "view",
      "type": "function"
    },
    {
      "constant": true,
      "inputs": [],
      "name": "getInstanceCount",
      "outputs": [
        {
          "internalType": "uint256",
          "name": "count",
          "type": "uint256"
        }
      ],
      "payable": false,
      "stateMutability": "view",
      "type": "function"
    },
    {
      "constant": true,
      "inputs": [
        {
          "internalType": "uint256",
          "name": "index",
          "type": "uint256"
        }
      ],
      "name": "getInstancePrice",
      "outputs": [
        {
          "internalType": "uint256",
          "name": "",
          "type": "uint256"
        }
      ],
      "payable": false,
      "stateMutability": "view",
      "type": "function"
    },
    {
      "constant": true,
      "inputs": [
        {
          "internalType": "uint256",
          "name": "index",
          "type": "uint256"
        }
      ],
      "name": "getInstanceProptype",
      "outputs": [
        {
          "internalType": "uint256",
          "name": "",
          "type": "uint256"
        }
      ],
      "payable": false,
      "stateMutability": "view",
      "type": "function"
    },
    {
      "constant": true,
      "inputs": [
        {
          "internalType": "uint256",
          "name": "index",
          "type": "uint256"
        }
      ],
      "name": "getInstanceAcco",
      "outputs": [
        {
          "internalType": "uint256",
          "name": "",
          "type": "uint256"
        }
      ],
      "payable": false,
      "stateMutability": "view",
      "type": "function"
    },
    {
      "constant": true,
      "inputs": [
        {
          "internalType": "uint256",
          "name": "index",
          "type": "uint256"
        }
      ],
      "name": "getInstancePropArea",
      "outputs": [
        {
          "internalType": "uint256",
          "name": "",
          "type": "uint256"
        }
      ],
      "payable": false,
      "stateMutability": "view",
      "type": "function"
    },
    {
      "constant": true,
      "inputs": [
        {
          "internalType": "uint256",
          "name": "index",
          "type": "uint256"
        }
      ],
      "name": "getInstanceDistrict",
      "outputs": [
        {
          "internalType": "string",
          "name": "",
          "type": "string"
        }
      ],
      "payable": false,
      "stateMutability": "view",
      "type": "function"
    },
    {
      "constant": true,
      "inputs": [
        {
          "internalType": "uint256",
          "name": "index",
          "type": "uint256"
        }
      ],
      "name": "getInstanceAddress",
      "outputs": [
        {
          "internalType": "string",
          "name": "",
          "type": "string"
        }
      ],
      "payable": false,
      "stateMutability": "view",
      "type": "function"
    },
    {
      "constant": true,
      "inputs": [
        {
          "internalType": "uint256",
          "name": "index",
          "type": "uint256"
        }
      ],
      "name": "getInstanceZIP",
      "outputs": [
        {
          "internalType": "string",
          "name": "",
          "type": "string"
        }
      ],
      "payable": false,
      "stateMutability": "view",
      "type": "function"
    },
    {
      "constant": true,
      "inputs": [
        {
          "internalType": "uint256",
          "name": "index",
          "type": "uint256"
        }
      ],
      "name": "getInstanceAgentFee",
      "outputs": [
        {
          "internalType": "uint256",
          "name": "",
          "type": "uint256"
        }
      ],
      "payable": false,
      "stateMutability": "view",
      "type": "function"
    },
    {
      "constant": true,
      "inputs": [
        {
          "internalType": "uint256",
          "name": "index",
          "type": "uint256"
        }
      ],
      "name": "getInstanceSellerAddress",
      "outputs": [
        {
          "internalType": "address",
          "name": "",
          "type": "address"
        }
      ],
      "payable": false,
      "stateMutability": "view",
      "type": "function"
    },
    {
      "constant": true,
      "inputs": [
        {
          "internalType": "uint256",
          "name": "index",
          "type": "uint256"
        }
      ],
      "name": "getInstanceBuyerAddress",
      "outputs": [
        {
          "internalType": "address",
          "name": "",
          "type": "address"
        }
      ],
      "payable": false,
      "stateMutability": "view",
      "type": "function"
    },
    {
      "constant": true,
      "inputs": [
        {
          "internalType": "uint256",
          "name": "index",
          "type": "uint256"
        }
      ],
      "name": "getInstanceAgentAddress",
      "outputs": [
        {
          "internalType": "address",
          "name": "",
          "type": "address"
        }
      ],
      "payable": false,
      "stateMutability": "view",
      "type": "function"
    },
    {
      "constant": true,
      "inputs": [
        {
          "internalType": "uint256",
          "name": "index",
          "type": "uint256"
        }
      ],
      "name": "getInstanceState",
      "outputs": [
        {
          "internalType": "uint256",
          "name": "",
          "type": "uint256"
        }
      ],
      "payable": false,
      "stateMutability": "view",
      "type": "function"
    },
    {
      "constant": true,
      "inputs": [
        {
          "internalType": "uint256",
          "name": "state",
          "type": "uint256"
        }
      ],
      "name": "getPropFromState",
      "outputs": [
        {
          "internalType": "uint256[]",
          "name": "",
          "type": "uint256[]"
        }
      ],
      "payable": false,
      "stateMutability": "view",
      "type": "function"
    },
    {
      "constant": true,
      "inputs": [
        {
          "internalType": "uint256",
          "name": "proptype",
          "type": "uint256"
        }
      ],
      "name": "getPropFromPropType",
      "outputs": [
        {
          "internalType": "uint256[]",
          "name": "",
          "type": "uint256[]"
        }
      ],
      "payable": false,
      "stateMutability": "view",
      "type": "function"
    },
    {
      "constant": true,
      "inputs": [
        {
          "internalType": "uint256",
          "name": "state",
          "type": "uint256"
        }
      ],
      "name": "getPropFromInvState",
      "outputs": [
        {
          "internalType": "uint256[]",
          "name": "",
          "type": "uint256[]"
        }
      ],
      "payable": false,
      "stateMutability": "view",
      "type": "function"
    },
    {
      "constant": true,
      "inputs": [
        {
          "internalType": "address",
          "name": "indexadd",
          "type": "address"
        }
      ],
      "name": "getPropFromBuyer",
      "outputs": [
        {
          "internalType": "uint256[]",
          "name": "",
          "type": "uint256[]"
        }
      ],
      "payable": false,
      "stateMutability": "view",
      "type": "function"
    },
    {
      "constant": true,
      "inputs": [
        {
          "internalType": "address",
          "name": "indexadd",
          "type": "address"
        }
      ],
      "name": "getPropFromSeller",
      "outputs": [
        {
          "internalType": "uint256[]",
          "name": "",
          "type": "uint256[]"
        }
      ],
      "payable": false,
      "stateMutability": "view",
      "type": "function"
    },
    {
      "constant": true,
      "inputs": [
        {
          "internalType": "address",
          "name": "indexadd",
          "type": "address"
        }
      ],
      "name": "getPropFromLawyer",
      "outputs": [
        {
          "internalType": "uint256[]",
          "name": "",
          "type": "uint256[]"
        }
      ],
      "payable": false,
      "stateMutability": "view",
      "type": "function"
    },
    {
      "constant": false,
      "inputs": [
        {
          "internalType": "uint256",
          "name": "index",
          "type": "uint256"
        }
      ],
      "name": "buyerShowsInterest",
      "outputs": [],
      "payable": true,
      "stateMutability": "payable",
      "type": "function"
    },
    {
      "constant": false,
      "inputs": [
        {
          "internalType": "uint256",
          "name": "index",
          "type": "uint256"
        }
      ],
      "name": "sellerSignContract",
      "outputs": [],
      "payable": true,
      "stateMutability": "payable",
      "type": "function"
    },
    {
      "constant": false,
      "inputs": [
        {
          "internalType": "uint256",
          "name": "index",
          "type": "uint256"
        }
      ],
      "name": "buyerSignContractAndPayDeposit",
      "outputs": [],
      "payable": true,
      "stateMutability": "payable",
      "type": "function"
    },
    {
      "constant": false,
      "inputs": [
        {
          "internalType": "uint256",
          "name": "index",
          "type": "uint256"
        },
        {
          "internalType": "bool",
          "name": "accept",
          "type": "bool"
        }
      ],
      "name": "AgentReviewedClosingConditions",
      "outputs": [],
      "payable": true,
      "stateMutability": "payable",
      "type": "function"
    },
    {
      "constant": false,
      "inputs": [
        {
          "internalType": "uint256",
          "name": "index",
          "type": "uint256"
        }
      ],
      "name": "buyerFinalizeTransaction",
      "outputs": [],
      "payable": true,
      "stateMutability": "payable",
      "type": "function"
    },
    {
      "constant": false,
      "inputs": [
        {
          "internalType": "uint256",
          "name": "index",
          "type": "uint256"
        }
      ],
      "name": "anyWithdrawFromTransaction",
      "outputs": [],
      "payable": true,
      "stateMutability": "payable",
      "type": "function"
    }
  ],
  "bytecode": "0x608060405234801561001057600080fd5b50614de3806100206000396000f3fe608060405260043610620001ed5760003560e01c8063595a45fe116200010f578063ae34325c11620000a3578063dbff9c8a116200006d578063dbff9c8a1462000ec7578063e9bdc18a1462000f1a578063ebd348de1462000fd5578063f828fa95146200105457620001ed565b8063ae34325c1462000d78578063c6f56def1462000da6578063c903b45c1462000dd7578063d35fdd791462000e5657620001ed565b80637e6bc31d11620000e55780637e6bc31d14620009c85780639938a3c71462000a5e578063a5f7597f1462000a8f578063a81be58d1462000ae257620001ed565b8063595a45fe14620008675780635d32927814620008ba578063794cb94f146200090d57620001ed565b806318299b91116200018757806334be3419116200015d57806334be3419146200067c5780633df25f2414620006cf5780633ed54a79146200077b5780634e9dcb58146200083657620001ed565b806318299b9114620004e85780631a952acf146200057e5780631c22cc4a14620005fd57620001ed565b8063035211c611620001c9578063035211c61462000300578063052df04c14620003535780630954225714620003a65780630a180b8d146200043c57620001ed565b8062ff4b3d14620001f257806301d2d18614620002235780630347784f1462000254575b600080fd5b62000221600480360360208110156200020a57600080fd5b810190808035906020019092919050505062001091565b005b62000252600480360360208110156200023b57600080fd5b8101908080359060200190929190505050620011ae565b005b3480156200026157600080fd5b50620002a7600480360360208110156200027a57600080fd5b81019080803573ffffffffffffffffffffffffffffffffffffffff169060200190929190505050620012cb565b6040518080602001828103825283818151815260200191508051906020019060200280838360005b83811015620002ec578082015181840152602081019050620002cf565b505050509050019250505060405180910390f35b3480156200030d57600080fd5b506200033d600480360360208110156200032657600080fd5b81019080803590602001909291905050506200138f565b6040518082815260200191505060405180910390f35b3480156200036057600080fd5b5062000390600480360360208110156200037957600080fd5b8101908080359060200190929190505050620014d3565b6040518082815260200191505060405180910390f35b348015620003b357600080fd5b50620003e360048036036020811015620003cc57600080fd5b810190808035906020019092919050505062001617565b6040518080602001828103825283818151815260200191508051906020019060200280838360005b83811015620004285780820151818401526020810190506200040b565b505050509050019250505060405180910390f35b3480156200044957600080fd5b506200048f600480360360208110156200046257600080fd5b81019080803573ffffffffffffffffffffffffffffffffffffffff169060200190929190505050620016af565b6040518080602001828103825283818151815260200191508051906020019060200280838360005b83811015620004d4578082015181840152602081019050620004b7565b505050509050019250505060405180910390f35b348015620004f557600080fd5b5062000525600480360360208110156200050e57600080fd5b810190808035906020019092919050505062001774565b6040518080602001828103825283818151815260200191508051906020019060200280838360005b838110156200056a5780820151818401526020810190506200054d565b505050509050019250505060405180910390f35b3480156200058b57600080fd5b50620005bb60048036036020811015620005a457600080fd5b81019080803590602001909291905050506200180d565b604051808273ffffffffffffffffffffffffffffffffffffffff1673ffffffffffffffffffffffffffffffffffffffff16815260200191505060405180910390f35b3480156200060a57600080fd5b506200063a600480360360208110156200062357600080fd5b810190808035906020019092919050505062001951565b604051808273ffffffffffffffffffffffffffffffffffffffff1673ffffffffffffffffffffffffffffffffffffffff16815260200191505060405180910390f35b3480156200068957600080fd5b50620006b960048036036020811015620006a257600080fd5b810190808035906020019092919050505062001a95565b6040518082815260200191505060405180910390f35b348015620006dc57600080fd5b506200072260048036036020811015620006f557600080fd5b81019080803573ffffffffffffffffffffffffffffffffffffffff16906020019092919050505062001be5565b6040518080602001828103825283818151815260200191508051906020019060200280838360005b83811015620007675780820151818401526020810190506200074a565b505050509050019250505060405180910390f35b3480156200078857600080fd5b50620007b860048036036020811015620007a157600080fd5b810190808035906020019092919050505062001caa565b6040518080602001828103825283818151815260200191508051906020019080838360005b83811015620007fa578082015181840152602081019050620007dd565b50505050905090810190601f168015620008285780820380516001836020036101000a031916815260200191505b509250505060405180910390f35b62000865600480360360208110156200084e57600080fd5b810190808035906020019092919050505062001eb2565b005b3480156200087457600080fd5b50620008a4600480360360208110156200088d57600080fd5b810190808035906020019092919050505062001fcf565b6040518082815260200191505060405180910390f35b348015620008c757600080fd5b50620008f760048036036020811015620008e057600080fd5b810190808035906020019092919050505062002113565b6040518082815260200191505060405180910390f35b3480156200091a57600080fd5b506200094a600480360360208110156200093357600080fd5b810190808035906020019092919050505062002257565b6040518080602001828103825283818151815260200191508051906020019080838360005b838110156200098c5780820151818401526020810190506200096f565b50505050905090810190601f168015620009ba5780820380516001836020036101000a031916815260200191505b509250505060405180910390f35b348015620009d557600080fd5b5062000a0560048036036020811015620009ee57600080fd5b810190808035906020019092919050505062002460565b6040518080602001828103825283818151815260200191508051906020019060200280838360005b8381101562000a4a57808201518184015260208101905062000a2d565b505050509050019250505060405180910390f35b62000a8d6004803603602081101562000a7657600080fd5b8101908080359060200190929190505050620024f9565b005b34801562000a9c57600080fd5b5062000acc6004803603602081101562000ab557600080fd5b810190808035906020019092919050505062002616565b6040518082815260200191505060405180910390f35b34801562000aef57600080fd5b5062000d36600480360361012081101562000b0957600080fd5b810190808035906020019064010000000081111562000b2757600080fd5b82018360208201111562000b3a57600080fd5b8035906020019184600183028401116401000000008311171562000b5d57600080fd5b91908080601f016020809104026020016040519081016040528093929190818152602001838380828437600081840152601f19601f8201169050808301925050505050505091929192908035906020019064010000000081111562000bc157600080fd5b82018360208201111562000bd457600080fd5b8035906020019184600183028401116401000000008311171562000bf757600080fd5b91908080601f016020809104026020016040519081016040528093929190818152602001838380828437600081840152601f19601f82011690508083019250505050505050919291929080359060200190929190803590602001909291908035906020019092919080359060200190929190803590602001909291908035906020019064010000000081111562000c8d57600080fd5b82018360208201111562000ca057600080fd5b8035906020019184600183028401116401000000008311171562000cc357600080fd5b91908080601f016020809104026020016040519081016040528093929190818152602001838380828437600081840152601f19601f820116905080830192505050505050509192919290803573ffffffffffffffffffffffffffffffffffffffff1690602001909291905050506200275a565b604051808273ffffffffffffffffffffffffffffffffffffffff1673ffffffffffffffffffffffffffffffffffffffff16815260200191505060405180910390f35b34801562000d8557600080fd5b5062000d9062002a14565b6040518082815260200191505060405180910390f35b62000dd56004803603602081101562000dbe57600080fd5b810190808035906020019092919050505062002a20565b005b34801562000de457600080fd5b5062000e146004803603602081101562000dfd57600080fd5b810190808035906020019092919050505062002b3d565b604051808273ffffffffffffffffffffffffffffffffffffffff1673ffffffffffffffffffffffffffffffffffffffff16815260200191505060405180910390f35b34801562000e6357600080fd5b5062000e6e62002c81565b6040518080602001828103825283818151815260200191508051906020019060200280838360005b8381101562000eb357808201518184015260208101905062000e96565b505050509050019250505060405180910390f35b34801562000ed457600080fd5b5062000f046004803603602081101562000eed57600080fd5b810190808035906020019092919050505062002d11565b6040518082815260200191505060405180910390f35b34801562000f2757600080fd5b5062000f576004803603602081101562000f4057600080fd5b810190808035906020019092919050505062002e55565b6040518080602001828103825283818151815260200191508051906020019080838360005b8381101562000f9957808201518184015260208101905062000f7c565b50505050905090810190601f16801562000fc75780820380516001836020036101000a031916815260200191505b509250505060405180910390f35b34801562000fe257600080fd5b50620010126004803603602081101562000ffb57600080fd5b81019080803590602001909291905050506200305e565b604051808273ffffffffffffffffffffffffffffffffffffffff1673ffffffffffffffffffffffffffffffffffffffff16815260200191505060405180910390f35b6200108f600480360360408110156200106c57600080fd5b81019080803590602001909291908035151590602001909291905050506200311a565b005b60008054905081106200110c576040517f08c379a00000000000000000000000000000000000000000000000000000000081526004018080602001828103825260128152602001807f696e646578206f7574206f662072616e6765000000000000000000000000000081525060200191505060405180910390fd5b60008082815481106200111b57fe5b9060005260206000200160009054906101000a900473ffffffffffffffffffffffffffffffffffffffff1690508073ffffffffffffffffffffffffffffffffffffffff166318be633f6040518163ffffffff1660e01b8152600401600060405180830381600087803b1580156200119157600080fd5b505af1158015620011a6573d6000803e3d6000fd5b505050505050565b600080549050811062001229576040517f08c379a00000000000000000000000000000000000000000000000000000000081526004018080602001828103825260128152602001807f696e646578206f7574206f662072616e6765000000000000000000000000000081525060200191505060405180910390fd5b60008082815481106200123857fe5b9060005260206000200160009054906101000a900473ffffffffffffffffffffffffffffffffffffffff1690508073ffffffffffffffffffffffffffffffffffffffff1663202dfc706040518163ffffffff1660e01b8152600401600060405180830381600087803b158015620012ae57600080fd5b505af1158015620012c3573d6000803e3d6000fd5b505050505050565b6060600080805490509050606081604051908082528060200260200182016040528015620013085781602001602082028038833980820191505090505b50905060008090505b8281101562001384578473ffffffffffffffffffffffffffffffffffffffff166200133c8262002b3d565b73ffffffffffffffffffffffffffffffffffffffff16146200137657600181018282815181106200136957fe5b6020026020010181815250505b808060010191505062001311565b508092505050919050565b6000808054905082106200140b576040517f08c379a00000000000000000000000000000000000000000000000000000000081526004018080602001828103825260128152602001807f696e646578206f7574206f662072616e6765000000000000000000000000000081525060200191505060405180910390fd5b60008083815481106200141a57fe5b9060005260206000200160009054906101000a900473ffffffffffffffffffffffffffffffffffffffff1690508073ffffffffffffffffffffffffffffffffffffffff1663a035b1fe6040518163ffffffff1660e01b815260040160206040518083038186803b1580156200148e57600080fd5b505afa158015620014a3573d6000803e3d6000fd5b505050506040513d6020811015620014ba57600080fd5b8101908080519060200190929190505050915050919050565b6000808054905082106200154f576040517f08c379a00000000000000000000000000000000000000000000000000000000081526004018080602001828103825260128152602001807f696e646578206f7574206f662072616e6765000000000000000000000000000081525060200191505060405180910390fd5b60008083815481106200155e57fe5b9060005260206000200160009054906101000a900473ffffffffffffffffffffffffffffffffffffffff1690508073ffffffffffffffffffffffffffffffffffffffff1663ccd3c7756040518163ffffffff1660e01b815260040160206040518083038186803b158015620015d257600080fd5b505afa158015620015e7573d6000803e3d6000fd5b505050506040513d6020811015620015fe57600080fd5b8101908080519060200190929190505050915050919050565b6060600080805490509050606081604051908082528060200260200182016040528015620016545781602001602082028038833980820191505090505b50905060008090505b82811015620016a45784620016728262001a95565b146200169657600181018282815181106200168957fe5b6020026020010181815250505b80806001019150506200165d565b508092505050919050565b6060600080805490509050606081604051908082528060200260200182016040528015620016ec5781602001602082028038833980820191505090505b50905060008090505b8281101562001769578473ffffffffffffffffffffffffffffffffffffffff1662001720826200180d565b73ffffffffffffffffffffffffffffffffffffffff1614156200175b57600181018282815181106200174e57fe5b6020026020010181815250505b8080600101915050620016f5565b508092505050919050565b6060600080805490509050606081604051908082528060200260200182016040528015620017b15781602001602082028038833980820191505090505b50905060008090505b82811015620018025784620017cf8262001a95565b1415620017f45760018101828281518110620017e757fe5b6020026020010181815250505b8080600101915050620017ba565b508092505050919050565b60008080549050821062001889576040517f08c379a00000000000000000000000000000000000000000000000000000000081526004018080602001828103825260128152602001807f696e646578206f7574206f662072616e6765000000000000000000000000000081525060200191505060405180910390fd5b60008083815481106200189857fe5b9060005260206000200160009054906101000a900473ffffffffffffffffffffffffffffffffffffffff1690508073ffffffffffffffffffffffffffffffffffffffff16637150d8ae6040518163ffffffff1660e01b815260040160206040518083038186803b1580156200190c57600080fd5b505afa15801562001921573d6000803e3d6000fd5b505050506040513d60208110156200193857600080fd5b8101908080519060200190929190505050915050919050565b600080805490508210620019cd576040517f08c379a00000000000000000000000000000000000000000000000000000000081526004018080602001828103825260128152602001807f696e646578206f7574206f662072616e6765000000000000000000000000000081525060200191505060405180910390fd5b6000808381548110620019dc57fe5b9060005260206000200160009054906101000a900473ffffffffffffffffffffffffffffffffffffffff1690508073ffffffffffffffffffffffffffffffffffffffff166308551a536040518163ffffffff1660e01b815260040160206040518083038186803b15801562001a5057600080fd5b505afa15801562001a65573d6000803e3d6000fd5b505050506040513d602081101562001a7c57600080fd5b8101908080519060200190929190505050915050919050565b60008080549050821062001b11576040517f08c379a00000000000000000000000000000000000000000000000000000000081526004018080602001828103825260128152602001807f696e646578206f7574206f662072616e6765000000000000000000000000000081525060200191505060405180910390fd5b600080838154811062001b2057fe5b9060005260206000200160009054906101000a900473ffffffffffffffffffffffffffffffffffffffff1690508073ffffffffffffffffffffffffffffffffffffffff166385209ee06040518163ffffffff1660e01b815260040160206040518083038186803b15801562001b9457600080fd5b505afa15801562001ba9573d6000803e3d6000fd5b505050506040513d602081101562001bc057600080fd5b8101908080519060200190929190505050600681111562001bdd57fe5b915050919050565b606060008080549050905060608160405190808252806020026020018201604052801562001c225781602001602082028038833980820191505090505b50905060008090505b8281101562001c9f578473ffffffffffffffffffffffffffffffffffffffff1662001c568262001951565b73ffffffffffffffffffffffffffffffffffffffff16141562001c91576001810182828151811062001c8457fe5b6020026020010181815250505b808060010191505062001c2b565b508092505050919050565b6060600080549050821062001d27576040517f08c379a00000000000000000000000000000000000000000000000000000000081526004018080602001828103825260128152602001807f696e646578206f7574206f662072616e6765000000000000000000000000000081525060200191505060405180910390fd5b600080838154811062001d3657fe5b9060005260206000200160009054906101000a900473ffffffffffffffffffffffffffffffffffffffff1690508073ffffffffffffffffffffffffffffffffffffffff16629190556040518163ffffffff1660e01b815260040160006040518083038186803b15801562001da957600080fd5b505afa15801562001dbe573d6000803e3d6000fd5b505050506040513d6000823e3d601f19601f82011682018060405250602081101562001de957600080fd5b810190808051604051939291908464010000000082111562001e0a57600080fd5b8382019150602082018581111562001e2157600080fd5b825186600182028301116401000000008211171562001e3f57600080fd5b8083526020830192505050908051906020019080838360005b8381101562001e7557808201518184015260208101905062001e58565b50505050905090810190601f16801562001ea35780820380516001836020036101000a031916815260200191505b50604052505050915050919050565b600080549050811062001f2d576040517f08c379a00000000000000000000000000000000000000000000000000000000081526004018080602001828103825260128152602001807f696e646578206f7574206f662072616e6765000000000000000000000000000081525060200191505060405180910390fd5b600080828154811062001f3c57fe5b9060005260206000200160009054906101000a900473ffffffffffffffffffffffffffffffffffffffff1690508073ffffffffffffffffffffffffffffffffffffffff16632323f8f56040518163ffffffff1660e01b8152600401600060405180830381600087803b15801562001fb257600080fd5b505af115801562001fc7573d6000803e3d6000fd5b505050505050565b6000808054905082106200204b576040517f08c379a00000000000000000000000000000000000000000000000000000000081526004018080602001828103825260128152602001807f696e646578206f7574206f662072616e6765000000000000000000000000000081525060200191505060405180910390fd5b60008083815481106200205a57fe5b9060005260206000200160009054906101000a900473ffffffffffffffffffffffffffffffffffffffff1690508073ffffffffffffffffffffffffffffffffffffffff166316d43a976040518163ffffffff1660e01b815260040160206040518083038186803b158015620020ce57600080fd5b505afa158015620020e3573d6000803e3d6000fd5b505050506040513d6020811015620020fa57600080fd5b8101908080519060200190929190505050915050919050565b6000808054905082106200218f576040517f08c379a00000000000000000000000000000000000000000000000000000000081526004018080602001828103825260128152602001807f696e646578206f7574206f662072616e6765000000000000000000000000000081525060200191505060405180910390fd5b60008083815481106200219e57fe5b9060005260206000200160009054906101000a900473ffffffffffffffffffffffffffffffffffffffff1690508073ffffffffffffffffffffffffffffffffffffffff1663bd3834736040518163ffffffff1660e01b815260040160206040518083038186803b1580156200221257600080fd5b505afa15801562002227573d6000803e3d6000fd5b505050506040513d60208110156200223e57600080fd5b8101908080519060200190929190505050915050919050565b60606000805490508210620022d4576040517f08c379a00000000000000000000000000000000000000000000000000000000081526004018080602001828103825260128152602001807f696e646578206f7574206f662072616e6765000000000000000000000000000081525060200191505060405180910390fd5b6000808381548110620022e357fe5b9060005260206000200160009054906101000a900473ffffffffffffffffffffffffffffffffffffffff1690508073ffffffffffffffffffffffffffffffffffffffff1663aad8cb686040518163ffffffff1660e01b815260040160006040518083038186803b1580156200235757600080fd5b505afa1580156200236c573d6000803e3d6000fd5b505050506040513d6000823e3d601f19601f8201168201806040525060208110156200239757600080fd5b8101908080516040519392919084640100000000821115620023b857600080fd5b83820191506020820185811115620023cf57600080fd5b8251866001820283011164010000000082111715620023ed57600080fd5b8083526020830192505050908051906020019080838360005b838110156200242357808201518184015260208101905062002406565b50505050905090810190601f168015620024515780820380516001836020036101000a031916815260200191505b50604052505050915050919050565b60606000808054905090506060816040519080825280602002602001820160405280156200249d5781602001602082028038833980820191505090505b50905060008090505b82811015620024ee5784620024bb8262001a95565b1415620024e05760018101828281518110620024d357fe5b6020026020010181815250505b8080600101915050620024a6565b508092505050919050565b600080549050811062002574576040517f08c379a00000000000000000000000000000000000000000000000000000000081526004018080602001828103825260128152602001807f696e646578206f7574206f662072616e6765000000000000000000000000000081525060200191505060405180910390fd5b60008082815481106200258357fe5b9060005260206000200160009054906101000a900473ffffffffffffffffffffffffffffffffffffffff1690508073ffffffffffffffffffffffffffffffffffffffff16634ed523e96040518163ffffffff1660e01b8152600401600060405180830381600087803b158015620025f957600080fd5b505af11580156200260e573d6000803e3d6000fd5b505050505050565b60008080549050821062002692576040517f08c379a00000000000000000000000000000000000000000000000000000000081526004018080602001828103825260128152602001807f696e646578206f7574206f662072616e6765000000000000000000000000000081525060200191505060405180910390fd5b6000808381548110620026a157fe5b9060005260206000200160009054906101000a900473ffffffffffffffffffffffffffffffffffffffff1690508073ffffffffffffffffffffffffffffffffffffffff166315ea4bb46040518163ffffffff1660e01b815260040160206040518083038186803b1580156200271557600080fd5b505afa1580156200272a573d6000803e3d6000fd5b505050506040513d60208110156200274157600080fd5b8101908080519060200190929190505050915050919050565b60008989898989898989893333604051620027759062003247565b8080602001806020018c81526020018b81526020018a8152602001898152602001888152602001806020018773ffffffffffffffffffffffffffffffffffffffff1673ffffffffffffffffffffffffffffffffffffffff1681526020018673ffffffffffffffffffffffffffffffffffffffff1673ffffffffffffffffffffffffffffffffffffffff1681526020018573ffffffffffffffffffffffffffffffffffffffff1673ffffffffffffffffffffffffffffffffffffffff16815260200184810384528f818151815260200191508051906020019080838360005b838110156200287057808201518184015260208101905062002853565b50505050905090810190601f1680156200289e5780820380516001836020036101000a031916815260200191505b5084810383528e818151815260200191508051906020019080838360005b83811015620028d9578082015181840152602081019050620028bc565b50505050905090810190601f168015620029075780820380516001836020036101000a031916815260200191505b50848103825288818151815260200191508051906020019080838360005b838110156200294257808201518184015260208101905062002925565b50505050905090810190601f168015620029705780820380516001836020036101000a031916815260200191505b509e505050505050505050505050505050604051809103906000f0801580156200299e573d6000803e3d6000fd5b50905060008190806001815401808255809150509060018203906000526020600020016000909192909190916101000a81548173ffffffffffffffffffffffffffffffffffffffff021916908373ffffffffffffffffffffffffffffffffffffffff160217905550509998505050505050505050565b60008080549050905090565b600080549050811062002a9b576040517f08c379a00000000000000000000000000000000000000000000000000000000081526004018080602001828103825260128152602001807f696e646578206f7574206f662072616e6765000000000000000000000000000081525060200191505060405180910390fd5b600080828154811062002aaa57fe5b9060005260206000200160009054906101000a900473ffffffffffffffffffffffffffffffffffffffff1690508073ffffffffffffffffffffffffffffffffffffffff1663ba0892d96040518163ffffffff1660e01b8152600401600060405180830381600087803b15801562002b2057600080fd5b505af115801562002b35573d6000803e3d6000fd5b505050505050565b60008080549050821062002bb9576040517f08c379a00000000000000000000000000000000000000000000000000000000081526004018080602001828103825260128152602001807f696e646578206f7574206f662072616e6765000000000000000000000000000081525060200191505060405180910390fd5b600080838154811062002bc857fe5b9060005260206000200160009054906101000a900473ffffffffffffffffffffffffffffffffffffffff1690508073ffffffffffffffffffffffffffffffffffffffff16639068ed176040518163ffffffff1660e01b815260040160206040518083038186803b15801562002c3c57600080fd5b505afa15801562002c51573d6000803e3d6000fd5b505050506040513d602081101562002c6857600080fd5b8101908080519060200190929190505050915050919050565b6060600080548060200260200160405190810160405280929190818152602001828054801562002d0757602002820191906000526020600020905b8160009054906101000a900473ffffffffffffffffffffffffffffffffffffffff1673ffffffffffffffffffffffffffffffffffffffff168152602001906001019080831162002cbc575b5050505050905090565b60008080549050821062002d8d576040517f08c379a00000000000000000000000000000000000000000000000000000000081526004018080602001828103825260128152602001807f696e646578206f7574206f662072616e6765000000000000000000000000000081525060200191505060405180910390fd5b600080838154811062002d9c57fe5b9060005260206000200160009054906101000a900473ffffffffffffffffffffffffffffffffffffffff1690508073ffffffffffffffffffffffffffffffffffffffff1663fe389db66040518163ffffffff1660e01b815260040160206040518083038186803b15801562002e1057600080fd5b505afa15801562002e25573d6000803e3d6000fd5b505050506040513d602081101562002e3c57600080fd5b8101908080519060200190929190505050915050919050565b6060600080549050821062002ed2576040517f08c379a00000000000000000000000000000000000000000000000000000000081526004018080602001828103825260128152602001807f696e646578206f7574206f662072616e6765000000000000000000000000000081525060200191505060405180910390fd5b600080838154811062002ee157fe5b9060005260206000200160009054906101000a900473ffffffffffffffffffffffffffffffffffffffff1690508073ffffffffffffffffffffffffffffffffffffffff1663f629ad306040518163ffffffff1660e01b815260040160006040518083038186803b15801562002f5557600080fd5b505afa15801562002f6a573d6000803e3d6000fd5b505050506040513d6000823e3d601f19601f82011682018060405250602081101562002f9557600080fd5b810190808051604051939291908464010000000082111562002fb657600080fd5b8382019150602082018581111562002fcd57600080fd5b825186600182028301116401000000008211171562002feb57600080fd5b8083526020830192505050908051906020019080838360005b838110156200302157808201518184015260208101905062003004565b50505050905090810190601f1680156200304f5780820380516001836020036101000a031916815260200191505b50604052505050915050919050565b600080805490508210620030da576040517f08c379a00000000000000000000000000000000000000000000000000000000081526004018080602001828103825260128152602001807f696e646578206f7574206f662072616e6765000000000000000000000000000081525060200191505060405180910390fd5b60008281548110620030e857fe5b9060005260206000200160009054906101000a900473ffffffffffffffffffffffffffffffffffffffff169050919050565b600080549050821062003195576040517f08c379a00000000000000000000000000000000000000000000000000000000081526004018080602001828103825260128152602001807f696e646578206f7574206f662072616e6765000000000000000000000000000081525060200191505060405180910390fd5b6000808381548110620031a457fe5b9060005260206000200160009054906101000a900473ffffffffffffffffffffffffffffffffffffffff1690508073ffffffffffffffffffffffffffffffffffffffff1663c7297f7b836040518263ffffffff1660e01b81526004018082151515158152602001915050600060405180830381600087803b1580156200322957600080fd5b505af11580156200323e573d6000803e3d6000fd5b50505050505050565b611b5980620032568339019056fe608060405260008060006101000a81548160ff021916908360068111156200002357fe5b02179055506000600e60006101000a81548160ff021916908360028111156200004857fe5b02179055503480156200005a57600080fd5b5060405162001b5938038062001b5983398181016040526101608110156200008157600080fd5b8101908080516040519392919084640100000000821115620000a257600080fd5b83820191506020820185811115620000b957600080fd5b8251866001820283011164010000000082111715620000d757600080fd5b8083526020830192505050908051906020019080838360005b838110156200010d578082015181840152602081019050620000f0565b50505050905090810190601f1680156200013b5780820380516001836020036101000a031916815260200191505b50604052602001805160405193929190846401000000008211156200015f57600080fd5b838201915060208201858111156200017657600080fd5b82518660018202830111640100000000821117156200019457600080fd5b8083526020830192505050908051906020019080838360005b83811015620001ca578082015181840152602081019050620001ad565b50505050905090810190601f168015620001f85780820380516001836020036101000a031916815260200191505b506040526020018051906020019092919080519060200190929190805190602001909291908051906020019092919080519060200190929190805160405193929190846401000000008211156200024e57600080fd5b838201915060208201858111156200026557600080fd5b82518660018202830111640100000000821117156200028357600080fd5b8083526020830192505050908051906020019080838360005b83811015620002b95780820151818401526020810190506200029c565b50505050905090810190601f168015620002e75780820380516001836020036101000a031916815260200191505b50604052602001805190602001909291908051906020019092919080519060200190929190505050888810156200036a576040517f08c379a000000000000000000000000000000000000000000000000000000000815260040180806020018281038252602681526020018062001b336026913960400191505060405180910390fd5b82600060016101000a81548173ffffffffffffffffffffffffffffffffffffffff021916908373ffffffffffffffffffffffffffffffffffffffff160217905550866007819055508560098190555084600a819055508360089080519060200190620003d8929190620004ac565b5081600160006101000a81548173ffffffffffffffffffffffffffffffffffffffff021916908373ffffffffffffffffffffffffffffffffffffffff16021790555080600260006101000a81548173ffffffffffffffffffffffffffffffffffffffff021916908373ffffffffffffffffffffffffffffffffffffffff1602179055508a6003908051906020019062000473929190620004ac565b5089600490805190602001906200048c929190620004ac565b50876006819055508860058190555050505050505050505050506200055b565b828054600181600116156101000203166002900490600052602060002090601f016020900481019282601f10620004ef57805160ff191683800117855562000520565b8280016001018555821562000520579182015b828111156200051f57825182559160200191906001019062000502565b5b5090506200052f919062000533565b5090565b6200055891905b80821115620005545760008160009055506001016200053a565b5090565b90565b6115c8806200056b6000396000f3fe6080604052600436106101295760003560e01c80639068ed17116100ab578063bd3834731161006f578063bd3834731461046a578063c7297f7b14610495578063ccd3c775146104d2578063d0e30db0146104fd578063f629ad3014610528578063fe389db6146105b857610129565b80639068ed1714610323578063a035b1fe1461037a578063a0cb23cd146103a5578063aad8cb68146103d0578063ba0892d91461046057610129565b8063202dfc70116100f2578063202dfc70146102755780632323f8f51461027f5780634ed523e9146102895780637150d8ae1461029357806385209ee0146102ea57610129565b80629190551461012e57806308551a53146101be57806315ea4bb41461021557806316d43a971461024057806318be633f1461026b575b600080fd5b34801561013a57600080fd5b506101436105e3565b6040518080602001828103825283818151815260200191508051906020019080838360005b83811015610183578082015181840152602081019050610168565b50505050905090810190601f1680156101b05780820380516001836020036101000a031916815260200191505b509250505060405180910390f35b3480156101ca57600080fd5b506101d3610681565b604051808273ffffffffffffffffffffffffffffffffffffffff1673ffffffffffffffffffffffffffffffffffffffff16815260200191505060405180910390f35b34801561022157600080fd5b5061022a6106a7565b6040518082815260200191505060405180910390f35b34801561024c57600080fd5b506102556106ad565b6040518082815260200191505060405180910390f35b6102736106b3565b005b61027d61087d565b005b610287610984565b005b610291610c28565b005b34801561029f57600080fd5b506102a8610e3a565b604051808273ffffffffffffffffffffffffffffffffffffffff1673ffffffffffffffffffffffffffffffffffffffff16815260200191505060405180910390f35b3480156102f657600080fd5b506102ff610e60565b6040518082600681111561030f57fe5b60ff16815260200191505060405180910390f35b34801561032f57600080fd5b50610338610e72565b604051808273ffffffffffffffffffffffffffffffffffffffff1673ffffffffffffffffffffffffffffffffffffffff16815260200191505060405180910390f35b34801561038657600080fd5b5061038f610e98565b6040518082815260200191505060405180910390f35b3480156103b157600080fd5b506103ba610e9e565b6040518082815260200191505060405180910390f35b3480156103dc57600080fd5b506103e5610ea4565b6040518080602001828103825283818151815260200191508051906020019080838360005b8381101561042557808201518184015260208101905061040a565b50505050905090810190601f1680156104525780820380516001836020036101000a031916815260200191505b509250505060405180910390f35b610468610f42565b005b34801561047657600080fd5b5061047f611195565b6040518082815260200191505060405180910390f35b3480156104a157600080fd5b506104d0600480360360208110156104b857600080fd5b8101908080351515906020019092919050505061119b565b005b3480156104de57600080fd5b506104e76113ea565b6040518082815260200191505060405180910390f35b34801561050957600080fd5b506105126113f0565b6040518082815260200191505060405180910390f35b34801561053457600080fd5b5061053d6113f6565b6040518080602001828103825283818151815260200191508051906020019080838360005b8381101561057d578082015181840152602081019050610562565b50505050905090810190601f1680156105aa5780820380516001836020036101000a031916815260200191505b509250505060405180910390f35b3480156105c457600080fd5b506105cd611494565b6040518082815260200191505060405180910390f35b60048054600181600116156101000203166002900480601f0160208091040260200160405190810160405280929190818152602001828054600181600116156101000203166002900480156106795780601f1061064e57610100808354040283529160200191610679565b820191906000526020600020905b81548152906001019060200180831161065c57829003601f168201915b505050505081565b600160009054906101000a900473ffffffffffffffffffffffffffffffffffffffff1681565b60095481565b600d5481565b3273ffffffffffffffffffffffffffffffffffffffff16600160009054906101000a900473ffffffffffffffffffffffffffffffffffffffff1673ffffffffffffffffffffffffffffffffffffffff1614610776576040517f08c379a000000000000000000000000000000000000000000000000000000000815260040180806020018281038252601d8152602001807f4f6e6c792073656c6c65722063616e207369676e20636f6e747261637400000081525060200191505060405180910390fd5b6001600681111561078357fe5b6000809054906101000a900460ff16600681111561079d57fe5b14610810576040517f08c379a00000000000000000000000000000000000000000000000000000000081526004018080602001828103825260148152602001807f57726f6e6720636f6e747261637420737461746500000000000000000000000081525060200191505060405180910390fd5b60026000806101000a81548160ff0219169083600681111561082e57fe5b021790555032600260006101000a81548173ffffffffffffffffffffffffffffffffffffffff021916908373ffffffffffffffffffffffffffffffffffffffff16021790555042600d81905550565b6000600681111561088a57fe5b6000809054906101000a900460ff1660068111156108a457fe5b14610917576040517f08c379a00000000000000000000000000000000000000000000000000000000081526004018080602001828103825260148152602001807f57726f6e6720636f6e747261637420737461746500000000000000000000000081525060200191505060405180910390fd5b60016000806101000a81548160ff0219169083600681111561093557fe5b021790555032600260006101000a81548173ffffffffffffffffffffffffffffffffffffffff021916908373ffffffffffffffffffffffffffffffffffffffff16021790555042600d81905550565b3273ffffffffffffffffffffffffffffffffffffffff16600260009054906101000a900473ffffffffffffffffffffffffffffffffffffffff1673ffffffffffffffffffffffffffffffffffffffff1614610a2a576040517f08c379a00000000000000000000000000000000000000000000000000000000081526004018080602001828103825260238152602001806115716023913960400191505060405180910390fd5b60046006811115610a3757fe5b6000809054906101000a900460ff166006811115610a5157fe5b14610ac4576040517f08c379a00000000000000000000000000000000000000000000000000000000081526004018080602001828103825260148152602001807f57726f6e6720636f6e747261637420737461746500000000000000000000000081525060200191505060405180910390fd5b600654600b54340114610b22576040517f08c379a000000000000000000000000000000000000000000000000000000000815260040180806020018281038252603f8152602001806114f6603f913960400191505060405180910390fd5b60056000806101000a81548160ff02191690836006811115610b4057fe5b0217905550600160009054906101000a900473ffffffffffffffffffffffffffffffffffffffff1673ffffffffffffffffffffffffffffffffffffffff166108fc600554600654039081150290604051600060405180830381858888f19350505050158015610bb3573d6000803e3d6000fd5b50600060019054906101000a900473ffffffffffffffffffffffffffffffffffffffff1673ffffffffffffffffffffffffffffffffffffffff166108fc6005549081150290604051600060405180830381858888f19350505050158015610c1e573d6000803e3d6000fd5b5042600d81905550565b3273ffffffffffffffffffffffffffffffffffffffff16600260009054906101000a900473ffffffffffffffffffffffffffffffffffffffff1673ffffffffffffffffffffffffffffffffffffffff1614610ceb576040517f08c379a000000000000000000000000000000000000000000000000000000000815260040180806020018281038252601c8152602001807f4f6e6c792062757965722063616e207369676e20636f6e74726163740000000081525060200191505060405180910390fd5b60026006811115610cf857fe5b6000809054906101000a900460ff166006811115610d1257fe5b14610d85576040517f08c379a00000000000000000000000000000000000000000000000000000000081526004018080602001828103825260148152602001807f57726f6e6720636f6e747261637420737461746500000000000000000000000081525060200191505060405180910390fd5b606460016006540281610d9457fe5b043410158015610da657506006543411155b610dfb576040517f08c379a000000000000000000000000000000000000000000000000000000000815260040180806020018281038252603c815260200180611535603c913960400191505060405180910390fd5b60036000806101000a81548160ff02191690836006811115610e1957fe5b021790555034600b81905550621275004201600c8190555042600d81905550565b600260009054906101000a900473ffffffffffffffffffffffffffffffffffffffff1681565b6000809054906101000a900460ff1681565b600060019054906101000a900473ffffffffffffffffffffffffffffffffffffffff1681565b60065481565b600c5481565b60088054600181600116156101000203166002900480601f016020809104026020016040519081016040528092919081815260200182805460018160011615610100020316600290048015610f3a5780601f10610f0f57610100808354040283529160200191610f3a565b820191906000526020600020905b815481529060010190602001808311610f1d57829003601f168201915b505050505081565b3273ffffffffffffffffffffffffffffffffffffffff16600260009054906101000a900473ffffffffffffffffffffffffffffffffffffffff1673ffffffffffffffffffffffffffffffffffffffff161480610fa0575042600c5411155b610ff5576040517f08c379a000000000000000000000000000000000000000000000000000000000815260040180806020018281038252603381526020018061149b6033913960400191505060405180910390fd5b6004600681111561100257fe5b6000809054906101000a900460ff16600681111561101c57fe5b1461108f576040517f08c379a00000000000000000000000000000000000000000000000000000000081526004018080602001828103825260148152602001807f57726f6e6720636f6e747261637420737461746500000000000000000000000081525060200191505060405180910390fd5b60066000806101000a81548160ff021916908360068111156110ad57fe5b0217905550600160009054906101000a900473ffffffffffffffffffffffffffffffffffffffff1673ffffffffffffffffffffffffffffffffffffffff166108fc600554600b54039081150290604051600060405180830381858888f19350505050158015611120573d6000803e3d6000fd5b50600060019054906101000a900473ffffffffffffffffffffffffffffffffffffffff1673ffffffffffffffffffffffffffffffffffffffff166108fc6005549081150290604051600060405180830381858888f1935050505015801561118b573d6000803e3d6000fd5b5042600d81905550565b60055481565b3273ffffffffffffffffffffffffffffffffffffffff16600060019054906101000a900473ffffffffffffffffffffffffffffffffffffffff1673ffffffffffffffffffffffffffffffffffffffff1614611241576040517f08c379a00000000000000000000000000000000000000000000000000000000081526004018080602001828103825260288152602001806114ce6028913960400191505060405180910390fd5b6003600681111561124e57fe5b6000809054906101000a900460ff16600681111561126857fe5b146112db576040517f08c379a00000000000000000000000000000000000000000000000000000000081526004018080602001828103825260148152602001807f57726f6e6720636f6e747261637420737461746500000000000000000000000081525060200191505060405180910390fd5b801561132d576001600e60006101000a81548160ff0219169083600281111561130057fe5b021790555060046000806101000a81548160ff0219169083600681111561132357fe5b02179055506113e0565b6000600e60006101000a81548160ff0219169083600281111561134c57fe5b021790555060008060006101000a81548160ff0219169083600681111561136f57fe5b0217905550600260009054906101000a900473ffffffffffffffffffffffffffffffffffffffff1673ffffffffffffffffffffffffffffffffffffffff166108fc600b549081150290604051600060405180830381858888f193505050501580156113de573d6000803e3d6000fd5b505b42600d8190555050565b60075481565b600b5481565b60038054600181600116156101000203166002900480601f01602080910402602001604051908101604052809291908181526020018280546001816001161561010002031660029004801561148c5780601f106114615761010080835404028352916020019161148c565b820191906000526020600020905b81548152906001019060200180831161146f57829003601f168201915b505050505081565b600a548156fe4f6e6c792062757965722063616e207769746864726177206265666f7265207472616e73616374696f6e20646561646c696e654f6e6c79204167656e742063616e2072657669657720636c6f73696e6720636f6e646974696f6e734275796572206e6565647320746f20706179207468652072657374206f662074686520636f737420746f2066696e616c697a65207472616e73616374696f6e4275796572206e6565647320746f206465706f736974206265747765656e2031302520616e64203130302520746f207369676e20636f6e74726163744f6e6c792062757965722063616e2066696e616c697a65207472616e73616374696f6ea265627a7a72315820abf6e96a8ce2e4868f76db9189ad608b9f9c3656825a802990e98e9614b6550464736f6c634300051100325072696365206e6565647320746f206265206d6f7265207468616e204167656e742066656521a265627a7a72315820f086e4747888ecb16fdc98c1794ca3204a59f301b155ac805c521c833788601064736f6c63430005110032",
  "source": "pragma solidity >=0.4.25 <0.6.0;\r\n\r\nimport \"./HomeTransaction.sol\";\r\n\r\ncontract Factory {\r\n  HomeTransaction[] contracts;\r\n  \r\n        \r\n  function create(\r\n        string memory _address,\r\n        string memory _zip,\r\n        uint _realtorFee,\r\n        uint _price,\r\n        uint _proptype,\r\n        uint _acco,\r\n        uint _proparea,\r\n        string memory _district,\r\n        address payable _Agent) public returns(HomeTransaction homeTransaction)  {\r\n    homeTransaction = new HomeTransaction(\r\n      _address,\r\n      _zip,\r\n      _realtorFee,\r\n      _price,\r\n      _proptype,\r\n      _acco,\r\n      _proparea,\r\n      _district,\r\n      _Agent,\r\n     msg.sender,\r\n      msg.sender);\r\n    contracts.push(homeTransaction);\r\n\r\n    \r\n  }\r\n\r\n  function getInstance(uint index) public view returns (HomeTransaction instance) {\r\n    require(index < contracts.length, \"index out of range\");\r\n\r\n    instance = contracts[index];\r\n  }\r\n  function getLastOpsTime(uint index) public view returns (uint ) {\r\n    require(index < contracts.length, \"index out of range\");\r\n\r\n    HomeTransaction instance = contracts[index];\r\n    return uint(instance.lastOperationTime());\r\n  }\r\n  function getInstances() public view returns (HomeTransaction[] memory instances) {\r\n    instances = contracts;\r\n  }\r\n\r\n  function getInstanceCount() public view returns (uint count) {\r\n    count = contracts.length;\r\n  }\r\n  function getInstancePrice(uint index) public view returns (uint) {\r\n  require(index < contracts.length, \"index out of range\");\r\n\r\n    HomeTransaction instance = contracts[index];\r\n    return instance.price();\r\n  }\r\n   function getInstanceProptype(uint index) public view returns (uint) {\r\n  require(index < contracts.length, \"index out of range\");\r\n\r\n    HomeTransaction instance = contracts[index];\r\n    return instance.proptype();\r\n  }\r\n     function getInstanceAcco(uint index) public view returns (uint) {\r\n  require(index < contracts.length, \"index out of range\");\r\n\r\n    HomeTransaction instance = contracts[index];\r\n    return instance.acco();\r\n  }\r\n    function getInstancePropArea(uint index) public view returns (uint) {\r\n  require(index < contracts.length, \"index out of range\");\r\n\r\n    HomeTransaction instance = contracts[index];\r\n    return instance.proparea();\r\n  }\r\n   function getInstanceDistrict(uint index) public view returns (string memory) {\r\n  require(index < contracts.length, \"index out of range\");\r\n\r\n    HomeTransaction instance = contracts[index];\r\n    return instance.district();\r\n  }\r\n function getInstanceAddress(uint index) public view returns (string memory) {\r\n    require(index < contracts.length, \"index out of range\");\r\n\r\n    HomeTransaction instance = contracts[index];\r\n    return instance.homeAddress();\r\n  }\r\n  function getInstanceZIP(uint index) public view returns (string memory) {\r\n    require(index < contracts.length, \"index out of range\");\r\n\r\n    HomeTransaction instance = contracts[index];\r\n    return instance.zip();\r\n  }\r\n\r\n  function getInstanceAgentFee(uint index) public view returns (uint) {\r\n    require(index < contracts.length, \"index out of range\");\r\n\r\n    HomeTransaction instance = contracts[index];\r\n    return instance.AgentFee();\r\n  }\r\n  function getInstanceSellerAddress(uint index) public view returns (address ) {\r\n    require(index < contracts.length, \"index out of range\");\r\n\r\n    HomeTransaction instance = contracts[index];\r\n    return instance.seller();\r\n  }\r\n  function getInstanceBuyerAddress(uint index) public view returns (address ) {\r\n    require(index < contracts.length, \"index out of range\");\r\n\r\n    HomeTransaction instance = contracts[index];\r\n    return instance.buyer();\r\n  }\r\n  function getInstanceAgentAddress(uint index) public view returns (address ) {\r\n    require(index < contracts.length, \"index out of range\");\r\n\r\n    HomeTransaction instance = contracts[index];\r\n    return instance.Agent();\r\n  }\r\n    \r\n  \r\n  function getInstanceState(uint index) public view returns (uint ) {\r\n    require(index < contracts.length, \"index out of range\");\r\n\r\n    HomeTransaction instance = contracts[index];\r\n    return uint(instance.contractState());\r\n  }\r\n  \r\n  function getPropFromState(uint state) public view returns (uint[] memory ) {\r\n    uint n =contracts.length;\r\n    uint[] memory ArrID =new uint[](n);\r\n    for(uint i=0; i < n;i++){\r\n        if(getInstanceState(i)==state){\r\n            ArrID[i]=i+1;}\r\n    }\r\n    return ArrID;\r\n    \r\n  }\r\n  \r\n   function getPropFromPropType(uint proptype) public view returns (uint[] memory ) {\r\n    uint n =contracts.length;\r\n    uint[] memory ArrID =new uint[](n);\r\n    for(uint i=0; i < n;i++){\r\n        if(getInstanceState(i)==proptype){\r\n            ArrID[i]=i+1;}\r\n    }\r\n    return ArrID;\r\n    \r\n  }\r\n  \r\n\r\n  \r\n  function getPropFromInvState(uint state) public view returns (uint[] memory ) {\r\n  uint n =contracts.length;\r\n    uint[] memory ArrID =new uint[](n);\r\n    for(uint i=0; i < n;i++){\r\n        if(getInstanceState(i)!=state){\r\n            ArrID[i]=i+1;}\r\n    }\r\n    return ArrID;\r\n  }\r\n\r\n\r\n  function getPropFromBuyer(address indexadd) public view returns (uint[] memory ) {\r\n  uint n =contracts.length;\r\n    uint[] memory ArrID =new uint[](n);\r\n    for(uint i=0; i < n;i++){\r\n        if(getInstanceBuyerAddress(i)==indexadd){\r\n            ArrID[i]=i+1;}\r\n    }\r\n    return ArrID;\r\n  }\r\n  \r\n  \r\n  function getPropFromSeller(address indexadd) public view returns (uint[] memory ) {\r\n  uint n =contracts.length;\r\n    uint[] memory ArrID =new uint[](n);\r\n    for(uint i=0; i < n;i++){\r\n        if(getInstanceSellerAddress(i)==indexadd){\r\n            ArrID[i]=i+1;}\r\n    }\r\n    return ArrID;\r\n  }\r\n  \r\n  function getPropFromLawyer(address indexadd) public view returns (uint[] memory ) {\r\n  uint n =contracts.length;\r\n    uint[] memory ArrID =new uint[](n);\r\n    for(uint i=0; i < n;i++){\r\n        if(getInstanceAgentAddress(i)!=indexadd){\r\n            ArrID[i]=i+1;}\r\n    }\r\n    return ArrID;\r\n  }\r\n\r\n  \r\n  function buyerShowsInterest(uint index) public payable\r\n{\r\n    require(index < contracts.length, \"index out of range\");\r\n    HomeTransaction instance = contracts[index];\r\n   instance.buyerShowsInterest();\r\n}\r\nfunction sellerSignContract(uint index) public payable\r\n{\r\n    require(index < contracts.length, \"index out of range\");\r\n    HomeTransaction instance = contracts[index];\r\n   instance.sellerSignContract();\r\n}\r\nfunction buyerSignContractAndPayDeposit(uint index) public payable\r\n{\r\n    require(index < contracts.length, \"index out of range\");\r\n    HomeTransaction instance = contracts[index];\r\n   instance.buyerSignContractAndPayDeposit();\r\n}\r\nfunction AgentReviewedClosingConditions(uint index,bool accept) public payable\r\n{\r\n    require(index < contracts.length, \"index out of range\");\r\n    HomeTransaction instance = contracts[index];\r\n   instance.AgentReviewedClosingConditions(accept);\r\n}\r\nfunction buyerFinalizeTransaction(uint index) public payable\r\n{\r\n    require(index < contracts.length, \"index out of range\");\r\n    HomeTransaction instance = contracts[index];\r\n   instance.buyerFinalizeTransaction();\r\n}\r\nfunction anyWithdrawFromTransaction(uint index) public payable\r\n{\r\n    require(index < contracts.length, \"index out of range\");\r\n    HomeTransaction instance = contracts[index];\r\n   instance.anyWithdrawFromTransaction();\r\n}\r\n  \r\n}",
  "sourcePath": "C:/Users/User/Desktop/Smart Contract/project/contracts/Factory.sol",
  "compiler": {
    "name": "solc",
    "version": "0.5.17+commit.d19bba13.Emscripten.clang"
  },
  "schemaVersion": "3.4.1",
  "updatedAt": "2021-06-03T14:59:14.695Z",
  "networkType": "ethereum",
  "devdoc": {
    "methods": {}
  },
  "userdoc": {
    "methods": {}
  }
}