{
  "contractName": "HomeTransaction",
  "abi": [
    {
      "inputs": [
        {
          "internalType": "string",
          "name": "_address",
          "type": "string"
        },
        {
          "internalType": "string",
          "name": "_zip",
          "type": "string"
        },
        {
          "internalType": "uint256",
          "name": "_AgentFee",
          "type": "uint256"
        },
        {
          "internalType": "uint256",
          "name": "_price",
          "type": "uint256"
        },
        {
          "internalType": "uint256",
          "name": "_proptype",
          "type": "uint256"
        },
        {
          "internalType": "uint256",
          "name": "_acco",
          "type": "uint256"
        },
        {
          "internalType": "uint256",
          "name": "_proparea",
          "type": "uint256"
        },
        {
          "internalType": "string",
          "name": "_district",
          "type": "string"
        },
        {
          "internalType": "address payable",
          "name": "_Agent",
          "type": "address"
        },
        {
          "internalType": "address payable",
          "name": "_seller",
          "type": "address"
        },
        {
          "internalType": "address payable",
          "name": "_buyer",
          "type": "address"
        }
      ],
      "payable": false,
      "stateMutability": "nonpayable",
      "type": "constructor"
    },
    {
      "constant": true,
      "inputs": [],
      "name": "Agent",
      "outputs": [
        {
          "internalType": "address payable",
          "name": "",
          "type": "address"
        }
      ],
      "payable": false,
      "stateMutability": "view",
      "type": "function"
    },
    {
      "constant": true,
      "inputs": [],
      "name": "AgentFee",
      "outputs": [
        {
          "internalType": "uint256",
          "name": "",
          "type": "uint256"
        }
      ],
      "payable": false,
      "stateMutability": "view",
      "type": "function"
    },
    {
      "constant": true,
      "inputs": [],
      "name": "acco",
      "outputs": [
        {
          "internalType": "uint256",
          "name": "",
          "type": "uint256"
        }
      ],
      "payable": false,
      "stateMutability": "view",
      "type": "function"
    },
    {
      "constant": true,
      "inputs": [],
      "name": "buyer",
      "outputs": [
        {
          "internalType": "address payable",
          "name": "",
          "type": "address"
        }
      ],
      "payable": false,
      "stateMutability": "view",
      "type": "function"
    },
    {
      "constant": true,
      "inputs": [],
      "name": "contractState",
      "outputs": [
        {
          "internalType": "enum HomeTransaction.ContractState",
          "name": "",
          "type": "uint8"
        }
      ],
      "payable": false,
      "stateMutability": "view",
      "type": "function"
    },
    {
      "constant": true,
      "inputs": [],
      "name": "deposit",
      "outputs": [
        {
          "internalType": "uint256",
          "name": "",
          "type": "uint256"
        }
      ],
      "payable": false,
      "stateMutability": "view",
      "type": "function"
    },
    {
      "constant": true,
      "inputs": [],
      "name": "district",
      "outputs": [
        {
          "internalType": "string",
          "name": "",
          "type": "string"
        }
      ],
      "payable": false,
      "stateMutability": "view",
      "type": "function"
    },
    {
      "constant": true,
      "inputs": [],
      "name": "finalizeDeadline",
      "outputs": [
        {
          "internalType": "uint256",
          "name": "",
          "type": "uint256"
        }
      ],
      "payable": false,
      "stateMutability": "view",
      "type": "function"
    },
    {
      "constant": true,
      "inputs": [],
      "name": "homeAddress",
      "outputs": [
        {
          "internalType": "string",
          "name": "",
          "type": "string"
        }
      ],
      "payable": false,
      "stateMutability": "view",
      "type": "function"
    },
    {
      "constant": true,
      "inputs": [],
      "name": "lastOperationTime",
      "outputs": [
        {
          "internalType": "uint256",
          "name": "",
          "type": "uint256"
        }
      ],
      "payable": false,
      "stateMutability": "view",
      "type": "function"
    },
    {
      "constant": true,
      "inputs": [],
      "name": "price",
      "outputs": [
        {
          "internalType": "uint256",
          "name": "",
          "type": "uint256"
        }
      ],
      "payable": false,
      "stateMutability": "view",
      "type": "function"
    },
    {
      "constant": true,
      "inputs": [],
      "name": "proparea",
      "outputs": [
        {
          "internalType": "uint256",
          "name": "",
          "type": "uint256"
        }
      ],
      "payable": false,
      "stateMutability": "view",
      "type": "function"
    },
    {
      "constant": true,
      "inputs": [],
      "name": "proptype",
      "outputs": [
        {
          "internalType": "uint256",
          "name": "",
          "type": "uint256"
        }
      ],
      "payable": false,
      "stateMutability": "view",
      "type": "function"
    },
    {
      "constant": true,
      "inputs": [],
      "name": "seller",
      "outputs": [
        {
          "internalType": "address payable",
          "name": "",
          "type": "address"
        }
      ],
      "payable": false,
      "stateMutability": "view",
      "type": "function"
    },
    {
      "constant": true,
      "inputs": [],
      "name": "zip",
      "outputs": [
        {
          "internalType": "string",
          "name": "",
          "type": "string"
        }
      ],
      "payable": false,
      "stateMutability": "view",
      "type": "function"
    },
    {
      "constant": false,
      "inputs": [],
      "name": "buyerShowsInterest",
      "outputs": [],
      "payable": true,
      "stateMutability": "payable",
      "type": "function"
    },
    {
      "constant": false,
      "inputs": [],
      "name": "sellerSignContract",
      "outputs": [],
      "payable": true,
      "stateMutability": "payable",
      "type": "function"
    },
    {
      "constant": false,
      "inputs": [],
      "name": "buyerSignContractAndPayDeposit",
      "outputs": [],
      "payable": true,
      "stateMutability": "payable",
      "type": "function"
    },
    {
      "constant": false,
      "inputs": [
        {
          "internalType": "bool",
          "name": "accepted",
          "type": "bool"
        }
      ],
      "name": "AgentReviewedClosingConditions",
      "outputs": [],
      "payable": false,
      "stateMutability": "nonpayable",
      "type": "function"
    },
    {
      "constant": false,
      "inputs": [],
      "name": "buyerFinalizeTransaction",
      "outputs": [],
      "payable": true,
      "stateMutability": "payable",
      "type": "function"
    },
    {
      "constant": false,
      "inputs": [],
      "name": "anyWithdrawFromTransaction",
      "outputs": [],
      "payable": true,
      "stateMutability": "payable",
      "type": "function"
    }
  ],
  "bytecode": "0x608060405260008060006101000a81548160ff021916908360068111156200002357fe5b02179055506000600e60006101000a81548160ff021916908360028111156200004857fe5b02179055503480156200005a57600080fd5b5060405162001b5938038062001b5983398181016040526101608110156200008157600080fd5b8101908080516040519392919084640100000000821115620000a257600080fd5b83820191506020820185811115620000b957600080fd5b8251866001820283011164010000000082111715620000d757600080fd5b8083526020830192505050908051906020019080838360005b838110156200010d578082015181840152602081019050620000f0565b50505050905090810190601f1680156200013b5780820380516001836020036101000a031916815260200191505b50604052602001805160405193929190846401000000008211156200015f57600080fd5b838201915060208201858111156200017657600080fd5b82518660018202830111640100000000821117156200019457600080fd5b8083526020830192505050908051906020019080838360005b83811015620001ca578082015181840152602081019050620001ad565b50505050905090810190601f168015620001f85780820380516001836020036101000a031916815260200191505b506040526020018051906020019092919080519060200190929190805190602001909291908051906020019092919080519060200190929190805160405193929190846401000000008211156200024e57600080fd5b838201915060208201858111156200026557600080fd5b82518660018202830111640100000000821117156200028357600080fd5b8083526020830192505050908051906020019080838360005b83811015620002b95780820151818401526020810190506200029c565b50505050905090810190601f168015620002e75780820380516001836020036101000a031916815260200191505b50604052602001805190602001909291908051906020019092919080519060200190929190505050888810156200036a576040517f08c379a000000000000000000000000000000000000000000000000000000000815260040180806020018281038252602681526020018062001b336026913960400191505060405180910390fd5b82600060016101000a81548173ffffffffffffffffffffffffffffffffffffffff021916908373ffffffffffffffffffffffffffffffffffffffff160217905550866007819055508560098190555084600a819055508360089080519060200190620003d8929190620004ac565b5081600160006101000a81548173ffffffffffffffffffffffffffffffffffffffff021916908373ffffffffffffffffffffffffffffffffffffffff16021790555080600260006101000a81548173ffffffffffffffffffffffffffffffffffffffff021916908373ffffffffffffffffffffffffffffffffffffffff1602179055508a6003908051906020019062000473929190620004ac565b5089600490805190602001906200048c929190620004ac565b50876006819055508860058190555050505050505050505050506200055b565b828054600181600116156101000203166002900490600052602060002090601f016020900481019282601f10620004ef57805160ff191683800117855562000520565b8280016001018555821562000520579182015b828111156200051f57825182559160200191906001019062000502565b5b5090506200052f919062000533565b5090565b6200055891905b80821115620005545760008160009055506001016200053a565b5090565b90565b6115c8806200056b6000396000f3fe6080604052600436106101295760003560e01c80639068ed17116100ab578063bd3834731161006f578063bd3834731461046a578063c7297f7b14610495578063ccd3c775146104d2578063d0e30db0146104fd578063f629ad3014610528578063fe389db6146105b857610129565b80639068ed1714610323578063a035b1fe1461037a578063a0cb23cd146103a5578063aad8cb68146103d0578063ba0892d91461046057610129565b8063202dfc70116100f2578063202dfc70146102755780632323f8f51461027f5780634ed523e9146102895780637150d8ae1461029357806385209ee0146102ea57610129565b80629190551461012e57806308551a53146101be57806315ea4bb41461021557806316d43a971461024057806318be633f1461026b575b600080fd5b34801561013a57600080fd5b506101436105e3565b6040518080602001828103825283818151815260200191508051906020019080838360005b83811015610183578082015181840152602081019050610168565b50505050905090810190601f1680156101b05780820380516001836020036101000a031916815260200191505b509250505060405180910390f35b3480156101ca57600080fd5b506101d3610681565b604051808273ffffffffffffffffffffffffffffffffffffffff1673ffffffffffffffffffffffffffffffffffffffff16815260200191505060405180910390f35b34801561022157600080fd5b5061022a6106a7565b6040518082815260200191505060405180910390f35b34801561024c57600080fd5b506102556106ad565b6040518082815260200191505060405180910390f35b6102736106b3565b005b61027d61087d565b005b610287610984565b005b610291610c28565b005b34801561029f57600080fd5b506102a8610e3a565b604051808273ffffffffffffffffffffffffffffffffffffffff1673ffffffffffffffffffffffffffffffffffffffff16815260200191505060405180910390f35b3480156102f657600080fd5b506102ff610e60565b6040518082600681111561030f57fe5b60ff16815260200191505060405180910390f35b34801561032f57600080fd5b50610338610e72565b604051808273ffffffffffffffffffffffffffffffffffffffff1673ffffffffffffffffffffffffffffffffffffffff16815260200191505060405180910390f35b34801561038657600080fd5b5061038f610e98565b6040518082815260200191505060405180910390f35b3480156103b157600080fd5b506103ba610e9e565b6040518082815260200191505060405180910390f35b3480156103dc57600080fd5b506103e5610ea4565b6040518080602001828103825283818151815260200191508051906020019080838360005b8381101561042557808201518184015260208101905061040a565b50505050905090810190601f1680156104525780820380516001836020036101000a031916815260200191505b509250505060405180910390f35b610468610f42565b005b34801561047657600080fd5b5061047f611195565b6040518082815260200191505060405180910390f35b3480156104a157600080fd5b506104d0600480360360208110156104b857600080fd5b8101908080351515906020019092919050505061119b565b005b3480156104de57600080fd5b506104e76113ea565b6040518082815260200191505060405180910390f35b34801561050957600080fd5b506105126113f0565b6040518082815260200191505060405180910390f35b34801561053457600080fd5b5061053d6113f6565b6040518080602001828103825283818151815260200191508051906020019080838360005b8381101561057d578082015181840152602081019050610562565b50505050905090810190601f1680156105aa5780820380516001836020036101000a031916815260200191505b509250505060405180910390f35b3480156105c457600080fd5b506105cd611494565b6040518082815260200191505060405180910390f35b60048054600181600116156101000203166002900480601f0160208091040260200160405190810160405280929190818152602001828054600181600116156101000203166002900480156106795780601f1061064e57610100808354040283529160200191610679565b820191906000526020600020905b81548152906001019060200180831161065c57829003601f168201915b505050505081565b600160009054906101000a900473ffffffffffffffffffffffffffffffffffffffff1681565b60095481565b600d5481565b3273ffffffffffffffffffffffffffffffffffffffff16600160009054906101000a900473ffffffffffffffffffffffffffffffffffffffff1673ffffffffffffffffffffffffffffffffffffffff1614610776576040517f08c379a000000000000000000000000000000000000000000000000000000000815260040180806020018281038252601d8152602001807f4f6e6c792073656c6c65722063616e207369676e20636f6e747261637400000081525060200191505060405180910390fd5b6001600681111561078357fe5b6000809054906101000a900460ff16600681111561079d57fe5b14610810576040517f08c379a00000000000000000000000000000000000000000000000000000000081526004018080602001828103825260148152602001807f57726f6e6720636f6e747261637420737461746500000000000000000000000081525060200191505060405180910390fd5b60026000806101000a81548160ff0219169083600681111561082e57fe5b021790555032600260006101000a81548173ffffffffffffffffffffffffffffffffffffffff021916908373ffffffffffffffffffffffffffffffffffffffff16021790555042600d81905550565b6000600681111561088a57fe5b6000809054906101000a900460ff1660068111156108a457fe5b14610917576040517f08c379a00000000000000000000000000000000000000000000000000000000081526004018080602001828103825260148152602001807f57726f6e6720636f6e747261637420737461746500000000000000000000000081525060200191505060405180910390fd5b60016000806101000a81548160ff0219169083600681111561093557fe5b021790555032600260006101000a81548173ffffffffffffffffffffffffffffffffffffffff021916908373ffffffffffffffffffffffffffffffffffffffff16021790555042600d81905550565b3273ffffffffffffffffffffffffffffffffffffffff16600260009054906101000a900473ffffffffffffffffffffffffffffffffffffffff1673ffffffffffffffffffffffffffffffffffffffff1614610a2a576040517f08c379a00000000000000000000000000000000000000000000000000000000081526004018080602001828103825260238152602001806115716023913960400191505060405180910390fd5b60046006811115610a3757fe5b6000809054906101000a900460ff166006811115610a5157fe5b14610ac4576040517f08c379a00000000000000000000000000000000000000000000000000000000081526004018080602001828103825260148152602001807f57726f6e6720636f6e747261637420737461746500000000000000000000000081525060200191505060405180910390fd5b600654600b54340114610b22576040517f08c379a000000000000000000000000000000000000000000000000000000000815260040180806020018281038252603f8152602001806114f6603f913960400191505060405180910390fd5b60056000806101000a81548160ff02191690836006811115610b4057fe5b0217905550600160009054906101000a900473ffffffffffffffffffffffffffffffffffffffff1673ffffffffffffffffffffffffffffffffffffffff166108fc600554600654039081150290604051600060405180830381858888f19350505050158015610bb3573d6000803e3d6000fd5b50600060019054906101000a900473ffffffffffffffffffffffffffffffffffffffff1673ffffffffffffffffffffffffffffffffffffffff166108fc6005549081150290604051600060405180830381858888f19350505050158015610c1e573d6000803e3d6000fd5b5042600d81905550565b3273ffffffffffffffffffffffffffffffffffffffff16600260009054906101000a900473ffffffffffffffffffffffffffffffffffffffff1673ffffffffffffffffffffffffffffffffffffffff1614610ceb576040517f08c379a000000000000000000000000000000000000000000000000000000000815260040180806020018281038252601c8152602001807f4f6e6c792062757965722063616e207369676e20636f6e74726163740000000081525060200191505060405180910390fd5b60026006811115610cf857fe5b6000809054906101000a900460ff166006811115610d1257fe5b14610d85576040517f08c379a00000000000000000000000000000000000000000000000000000000081526004018080602001828103825260148152602001807f57726f6e6720636f6e747261637420737461746500000000000000000000000081525060200191505060405180910390fd5b606460016006540281610d9457fe5b043410158015610da657506006543411155b610dfb576040517f08c379a000000000000000000000000000000000000000000000000000000000815260040180806020018281038252603c815260200180611535603c913960400191505060405180910390fd5b60036000806101000a81548160ff02191690836006811115610e1957fe5b021790555034600b81905550621275004201600c8190555042600d81905550565b600260009054906101000a900473ffffffffffffffffffffffffffffffffffffffff1681565b6000809054906101000a900460ff1681565b600060019054906101000a900473ffffffffffffffffffffffffffffffffffffffff1681565b60065481565b600c5481565b60088054600181600116156101000203166002900480601f016020809104026020016040519081016040528092919081815260200182805460018160011615610100020316600290048015610f3a5780601f10610f0f57610100808354040283529160200191610f3a565b820191906000526020600020905b815481529060010190602001808311610f1d57829003601f168201915b505050505081565b3273ffffffffffffffffffffffffffffffffffffffff16600260009054906101000a900473ffffffffffffffffffffffffffffffffffffffff1673ffffffffffffffffffffffffffffffffffffffff161480610fa0575042600c5411155b610ff5576040517f08c379a000000000000000000000000000000000000000000000000000000000815260040180806020018281038252603381526020018061149b6033913960400191505060405180910390fd5b6004600681111561100257fe5b6000809054906101000a900460ff16600681111561101c57fe5b1461108f576040517f08c379a00000000000000000000000000000000000000000000000000000000081526004018080602001828103825260148152602001807f57726f6e6720636f6e747261637420737461746500000000000000000000000081525060200191505060405180910390fd5b60066000806101000a81548160ff021916908360068111156110ad57fe5b0217905550600160009054906101000a900473ffffffffffffffffffffffffffffffffffffffff1673ffffffffffffffffffffffffffffffffffffffff166108fc600554600b54039081150290604051600060405180830381858888f19350505050158015611120573d6000803e3d6000fd5b50600060019054906101000a900473ffffffffffffffffffffffffffffffffffffffff1673ffffffffffffffffffffffffffffffffffffffff166108fc6005549081150290604051600060405180830381858888f1935050505015801561118b573d6000803e3d6000fd5b5042600d81905550565b60055481565b3273ffffffffffffffffffffffffffffffffffffffff16600060019054906101000a900473ffffffffffffffffffffffffffffffffffffffff1673ffffffffffffffffffffffffffffffffffffffff1614611241576040517f08c379a00000000000000000000000000000000000000000000000000000000081526004018080602001828103825260288152602001806114ce6028913960400191505060405180910390fd5b6003600681111561124e57fe5b6000809054906101000a900460ff16600681111561126857fe5b146112db576040517f08c379a00000000000000000000000000000000000000000000000000000000081526004018080602001828103825260148152602001807f57726f6e6720636f6e747261637420737461746500000000000000000000000081525060200191505060405180910390fd5b801561132d576001600e60006101000a81548160ff0219169083600281111561130057fe5b021790555060046000806101000a81548160ff0219169083600681111561132357fe5b02179055506113e0565b6000600e60006101000a81548160ff0219169083600281111561134c57fe5b021790555060008060006101000a81548160ff0219169083600681111561136f57fe5b0217905550600260009054906101000a900473ffffffffffffffffffffffffffffffffffffffff1673ffffffffffffffffffffffffffffffffffffffff166108fc600b549081150290604051600060405180830381858888f193505050501580156113de573d6000803e3d6000fd5b505b42600d8190555050565b60075481565b600b5481565b60038054600181600116156101000203166002900480601f01602080910402602001604051908101604052809291908181526020018280546001816001161561010002031660029004801561148c5780601f106114615761010080835404028352916020019161148c565b820191906000526020600020905b81548152906001019060200180831161146f57829003601f168201915b505050505081565b600a548156fe4f6e6c792062757965722063616e207769746864726177206265666f7265207472616e73616374696f6e20646561646c696e654f6e6c79204167656e742063616e2072657669657720636c6f73696e6720636f6e646974696f6e734275796572206e6565647320746f20706179207468652072657374206f662074686520636f737420746f2066696e616c697a65207472616e73616374696f6e4275796572206e6565647320746f206465706f736974206265747765656e2031302520616e64203130302520746f207369676e20636f6e74726163744f6e6c792062757965722063616e2066696e616c697a65207472616e73616374696f6ea265627a7a72315820abf6e96a8ce2e4868f76db9189ad608b9f9c3656825a802990e98e9614b6550464736f6c634300051100325072696365206e6565647320746f206265206d6f7265207468616e204167656e742066656521",
  "source": "pragma solidity >=0.4.25 <0.6.0;\r\n\r\ncontract HomeTransaction {\r\n    // Constants\r\n    uint constant timeBetweenDepositAndFinalization = 14 days;\r\n    uint constant depositPercentage = 1;\r\n   \r\n   \r\n    enum ContractState {\r\n        WaitingBuyerInterest,\r\n        WaitingSellerSignature,\r\n        WaitingBuyerSignature,\r\n        WaitingAgentReview,\r\n        WaitingFinalization,\r\n        Finalized,\r\n        Rejected }\r\n    ContractState public contractState = ContractState.WaitingBuyerInterest;\r\n\r\n    \r\n    // Roles acting on contract\r\n    address payable public Agent;\r\n    address payable public seller;\r\n    address payable public buyer;\r\n\r\n    // Contract details\r\n    string public homeAddress;\r\n    string public zip;\r\n    uint public AgentFee;\r\n    uint public price;\r\n    uint public proptype;\r\n    string public district;\r\n    uint public acco;\r\n    uint public proparea;\r\n    // Set when buyer signs and pays deposit\r\n    uint public deposit;\r\n    uint public finalizeDeadline;\r\n    uint public lastOperationTime;\r\n    // Set when Agent reviews closing conditions\r\n    enum ClosingConditionsReview { Pending, Accepted, Rejected }\r\n    ClosingConditionsReview closingConditionsReview = ClosingConditionsReview.Pending;\r\n\r\n    constructor(\r\n        \r\n        string memory _address,\r\n        string memory _zip,\r\n        uint _AgentFee,\r\n        uint _price,\r\n        uint _proptype,\r\n        uint _acco,\r\n        uint _proparea,\r\n        string memory _district,\r\n        address payable _Agent,\r\n        address payable _seller,\r\n        address payable _buyer) public {\r\n        require(_price >= _AgentFee, \"Price needs to be more than Agent fee!\");\r\n        \r\n        \r\n        Agent = _Agent;\r\n        proptype=_proptype;\r\n        acco =_acco;\r\n        proparea =_proparea;\r\n        district=_district;\r\n        seller = _seller;\r\n        buyer = _buyer;\r\n        homeAddress = _address;\r\n        zip = _zip;\r\n        price = _price;\r\n        AgentFee = _AgentFee;\r\n        \r\n    }\r\n\r\n       function buyerShowsInterest() public payable {\r\n        \r\n\r\n        require(contractState == ContractState.WaitingBuyerInterest, \"Wrong contract state\");\r\n\r\n        contractState = ContractState.WaitingSellerSignature;\r\n        buyer=tx.origin; //setting seller address\r\n        lastOperationTime=now;\r\n    }\r\n    function sellerSignContract() public payable {\r\n        require(seller == tx.origin, \"Only seller can sign contract\");\r\n\r\n        require(contractState == ContractState.WaitingSellerSignature, \"Wrong contract state\");\r\n\r\n        contractState = ContractState.WaitingBuyerSignature;\r\n        buyer=tx.origin; //setting seller address\r\n        lastOperationTime=now;\r\n    }\r\n\r\n    function buyerSignContractAndPayDeposit() public payable {\r\n        require(buyer == tx.origin, \"Only buyer can sign contract\");\r\n\r\n        require(contractState == ContractState.WaitingBuyerSignature, \"Wrong contract state\");\r\n    \r\n        require(msg.value >= price*depositPercentage/100 && msg.value <= price, \"Buyer needs to deposit between 10% and 100% to sign contract\");\r\n\r\n        contractState = ContractState.WaitingAgentReview;\r\n\r\n        deposit = msg.value;\r\n        finalizeDeadline = now + timeBetweenDepositAndFinalization;\r\n        lastOperationTime=now;\r\n    }\r\n\r\n    function AgentReviewedClosingConditions(bool accepted) public {\r\n        require(Agent == tx.origin, \"Only Agent can review closing conditions\");\r\n\r\n        require(contractState == ContractState.WaitingAgentReview, \"Wrong contract state\");\r\n        \r\n        if (accepted) {\r\n            closingConditionsReview = ClosingConditionsReview.Accepted;\r\n            contractState = ContractState.WaitingFinalization;\r\n        } else {\r\n            closingConditionsReview = ClosingConditionsReview.Pending;\r\n            contractState = ContractState.WaitingBuyerInterest;\r\n            \r\n            buyer.transfer(deposit);\r\n        }\r\n        lastOperationTime=now;\r\n    }\r\n\r\n    function buyerFinalizeTransaction() public payable {\r\n        require(buyer == tx.origin, \"Only buyer can finalize transaction\");\r\n\r\n        require(contractState == ContractState.WaitingFinalization, \"Wrong contract state\");\r\n\r\n        require(msg.value + deposit == price, \"Buyer needs to pay the rest of the cost to finalize transaction\");\r\n\r\n        contractState = ContractState.Finalized;\r\n\r\n        seller.transfer(price-AgentFee);\r\n        Agent.transfer(AgentFee);\r\n        lastOperationTime=now;\r\n    }\r\n\r\n    function anyWithdrawFromTransaction() public payable{\r\n        require(buyer == tx.origin || finalizeDeadline <= now, \"Only buyer can withdraw before transaction deadline\");\r\n\r\n        require(contractState == ContractState.WaitingFinalization, \"Wrong contract state\");\r\n\r\n       contractState = ContractState.Rejected;\r\n\r\n        seller.transfer(deposit-AgentFee);\r\n        Agent.transfer(AgentFee);\r\n        lastOperationTime=now;\r\n    }\r\n    \r\n}\r\n",
  "sourcePath": "C:/Users/User/Desktop/Smart Contract/project/contracts/HomeTransaction.sol",
  "compiler": {
    "name": "solc",
    "version": "0.5.17+commit.d19bba13.Emscripten.clang"
  },
  "schemaVersion": "3.4.1",
  "updatedAt": "2021-06-03T14:59:12.644Z",
  "devdoc": {
    "methods": {}
  },
  "userdoc": {
    "methods": {}
  }
}