{
  "contractName": "HomeTransaction",
  "abi": [
    {
      "inputs": [
        {
          "internalType": "string",
          "name": "_address",
          "type": "string"
        },
        {
          "internalType": "string",
          "name": "_zip",
          "type": "string"
        },
        {
          "internalType": "string",
          "name": "_city",
          "type": "string"
        },
        {
          "internalType": "uint256",
          "name": "_AgentFee",
          "type": "uint256"
        },
        {
          "internalType": "uint256",
          "name": "_price",
          "type": "uint256"
        },
        {
          "internalType": "address payable",
          "name": "_Agent",
          "type": "address"
        },
        {
          "internalType": "address payable",
          "name": "_seller",
          "type": "address"
        },
        {
          "internalType": "address payable",
          "name": "_buyer",
          "type": "address"
        }
      ],
      "payable": false,
      "stateMutability": "nonpayable",
      "type": "constructor"
    },
    {
      "constant": true,
      "inputs": [],
      "name": "Agent",
      "outputs": [
        {
          "internalType": "address payable",
          "name": "",
          "type": "address"
        }
      ],
      "payable": false,
      "stateMutability": "view",
      "type": "function"
    },
    {
      "constant": true,
      "inputs": [],
      "name": "AgentFee",
      "outputs": [
        {
          "internalType": "uint256",
          "name": "",
          "type": "uint256"
        }
      ],
      "payable": false,
      "stateMutability": "view",
      "type": "function"
    },
    {
      "constant": true,
      "inputs": [],
      "name": "buyer",
      "outputs": [
        {
          "internalType": "address payable",
          "name": "",
          "type": "address"
        }
      ],
      "payable": false,
      "stateMutability": "view",
      "type": "function"
    },
    {
      "constant": true,
      "inputs": [],
      "name": "city",
      "outputs": [
        {
          "internalType": "string",
          "name": "",
          "type": "string"
        }
      ],
      "payable": false,
      "stateMutability": "view",
      "type": "function"
    },
    {
      "constant": true,
      "inputs": [],
      "name": "contractState",
      "outputs": [
        {
          "internalType": "enum HomeTransaction.ContractState",
          "name": "",
          "type": "uint8"
        }
      ],
      "payable": false,
      "stateMutability": "view",
      "type": "function"
    },
    {
      "constant": true,
      "inputs": [],
      "name": "deposit",
      "outputs": [
        {
          "internalType": "uint256",
          "name": "",
          "type": "uint256"
        }
      ],
      "payable": false,
      "stateMutability": "view",
      "type": "function"
    },
    {
      "constant": true,
      "inputs": [],
      "name": "finalizeDeadline",
      "outputs": [
        {
          "internalType": "uint256",
          "name": "",
          "type": "uint256"
        }
      ],
      "payable": false,
      "stateMutability": "view",
      "type": "function"
    },
    {
      "constant": true,
      "inputs": [],
      "name": "homeAddress",
      "outputs": [
        {
          "internalType": "string",
          "name": "",
          "type": "string"
        }
      ],
      "payable": false,
      "stateMutability": "view",
      "type": "function"
    },
    {
      "constant": true,
      "inputs": [],
      "name": "price",
      "outputs": [
        {
          "internalType": "uint256",
          "name": "",
          "type": "uint256"
        }
      ],
      "payable": false,
      "stateMutability": "view",
      "type": "function"
    },
    {
      "constant": true,
      "inputs": [],
      "name": "seller",
      "outputs": [
        {
          "internalType": "address payable",
          "name": "",
          "type": "address"
        }
      ],
      "payable": false,
      "stateMutability": "view",
      "type": "function"
    },
    {
      "constant": true,
      "inputs": [],
      "name": "zip",
      "outputs": [
        {
          "internalType": "string",
          "name": "",
          "type": "string"
        }
      ],
      "payable": false,
      "stateMutability": "view",
      "type": "function"
    },
    {
      "constant": false,
      "inputs": [],
      "name": "buyerShowsInterest",
      "outputs": [],
      "payable": true,
      "stateMutability": "payable",
      "type": "function"
    },
    {
      "constant": false,
      "inputs": [],
      "name": "sellerSignContract",
      "outputs": [],
      "payable": true,
      "stateMutability": "payable",
      "type": "function"
    },
    {
      "constant": false,
      "inputs": [],
      "name": "buyerSignContractAndPayDeposit",
      "outputs": [],
      "payable": true,
      "stateMutability": "payable",
      "type": "function"
    },
    {
      "constant": false,
      "inputs": [
        {
          "internalType": "bool",
          "name": "accepted",
          "type": "bool"
        }
      ],
      "name": "AgentReviewedClosingConditions",
      "outputs": [],
      "payable": false,
      "stateMutability": "nonpayable",
      "type": "function"
    },
    {
      "constant": false,
      "inputs": [],
      "name": "buyerFinalizeTransaction",
      "outputs": [],
      "payable": true,
      "stateMutability": "payable",
      "type": "function"
    },
    {
      "constant": false,
      "inputs": [],
      "name": "anyWithdrawFromTransaction",
      "outputs": [],
      "payable": true,
      "stateMutability": "payable",
      "type": "function"
    }
  ],
  "bytecode": "0x608060405260008060006101000a81548160ff021916908360068111156200002357fe5b02179055506000600a60006101000a81548160ff021916908360028111156200004857fe5b02179055503480156200005a57600080fd5b5060405162001a0938038062001a0983398181016040526101008110156200008157600080fd5b8101908080516040519392919084640100000000821115620000a257600080fd5b83820191506020820185811115620000b957600080fd5b8251866001820283011164010000000082111715620000d757600080fd5b8083526020830192505050908051906020019080838360005b838110156200010d578082015181840152602081019050620000f0565b50505050905090810190601f1680156200013b5780820380516001836020036101000a031916815260200191505b50604052602001805160405193929190846401000000008211156200015f57600080fd5b838201915060208201858111156200017657600080fd5b82518660018202830111640100000000821117156200019457600080fd5b8083526020830192505050908051906020019080838360005b83811015620001ca578082015181840152602081019050620001ad565b50505050905090810190601f168015620001f85780820380516001836020036101000a031916815260200191505b50604052602001805160405193929190846401000000008211156200021c57600080fd5b838201915060208201858111156200023357600080fd5b82518660018202830111640100000000821117156200025157600080fd5b8083526020830192505050908051906020019080838360005b83811015620002875780820151818401526020810190506200026a565b50505050905090810190601f168015620002b55780820380516001836020036101000a031916815260200191505b506040526020018051906020019092919080519060200190929190805190602001909291908051906020019092919080519060200190929190505050848410156200034c576040517f08c379a0000000000000000000000000000000000000000000000000000000008152600401808060200182810382526026815260200180620019e36026913960400191505060405180910390fd5b82600060016101000a81548173ffffffffffffffffffffffffffffffffffffffff021916908373ffffffffffffffffffffffffffffffffffffffff16021790555081600160006101000a81548173ffffffffffffffffffffffffffffffffffffffff021916908373ffffffffffffffffffffffffffffffffffffffff16021790555080600260006101000a81548173ffffffffffffffffffffffffffffffffffffffff021916908373ffffffffffffffffffffffffffffffffffffffff16021790555087600390805190602001906200042792919062000476565b5086600490805190602001906200044092919062000476565b5085600590805190602001906200045992919062000476565b508360078190555084600681905550505050505050505062000525565b828054600181600116156101000203166002900490600052602060002090601f016020900481019282601f10620004b957805160ff1916838001178555620004ea565b82800160010185558215620004ea579182015b82811115620004e9578251825591602001919060010190620004cc565b5b509050620004f99190620004fd565b5090565b6200052291905b808211156200051e57600081600090555060010162000504565b5090565b90565b6114ae80620005356000396000f3fe6080604052600436106100fd5760003560e01c80639068ed1711610095578063bd38347311610064578063bd38347314610358578063c7297f7b14610383578063d0e30db0146103c0578063f629ad30146103eb578063fd0160fe1461047b576100fd565b80639068ed17146102a1578063a035b1fe146102f8578063a0cb23cd14610323578063ba0892d91461034e576100fd565b80632323f8f5116100d15780632323f8f5146101fd5780634ed523e9146102075780637150d8ae1461021157806385209ee014610268576100fd565b80629190551461010257806308551a531461019257806318be633f146101e9578063202dfc70146101f3575b600080fd5b34801561010e57600080fd5b5061011761050b565b6040518080602001828103825283818151815260200191508051906020019080838360005b8381101561015757808201518184015260208101905061013c565b50505050905090810190601f1680156101845780820380516001836020036101000a031916815260200191505b509250505060405180910390f35b34801561019e57600080fd5b506101a76105a9565b604051808273ffffffffffffffffffffffffffffffffffffffff1673ffffffffffffffffffffffffffffffffffffffff16815260200191505060405180910390f35b6101f16105cf565b005b6101fb610792565b005b610205610892565b005b61020f610b2f565b005b34801561021d57600080fd5b50610226610d3a565b604051808273ffffffffffffffffffffffffffffffffffffffff1673ffffffffffffffffffffffffffffffffffffffff16815260200191505060405180910390f35b34801561027457600080fd5b5061027d610d60565b6040518082600681111561028d57fe5b60ff16815260200191505060405180910390f35b3480156102ad57600080fd5b506102b6610d72565b604051808273ffffffffffffffffffffffffffffffffffffffff1673ffffffffffffffffffffffffffffffffffffffff16815260200191505060405180910390f35b34801561030457600080fd5b5061030d610d98565b6040518082815260200191505060405180910390f35b34801561032f57600080fd5b50610338610d9e565b6040518082815260200191505060405180910390f35b610356610da4565b005b34801561036457600080fd5b5061036d610ff0565b6040518082815260200191505060405180910390f35b34801561038f57600080fd5b506103be600480360360208110156103a657600080fd5b81019080803515159060200190929190505050610ff6565b005b3480156103cc57600080fd5b506103d561123e565b6040518082815260200191505060405180910390f35b3480156103f757600080fd5b50610400611244565b6040518080602001828103825283818151815260200191508051906020019080838360005b83811015610440578082015181840152602081019050610425565b50505050905090810190601f16801561046d5780820380516001836020036101000a031916815260200191505b509250505060405180910390f35b34801561048757600080fd5b506104906112e2565b6040518080602001828103825283818151815260200191508051906020019080838360005b838110156104d05780820151818401526020810190506104b5565b50505050905090810190601f1680156104fd5780820380516001836020036101000a031916815260200191505b509250505060405180910390f35b60048054600181600116156101000203166002900480601f0160208091040260200160405190810160405280929190818152602001828054600181600116156101000203166002900480156105a15780601f10610576576101008083540402835291602001916105a1565b820191906000526020600020905b81548152906001019060200180831161058457829003601f168201915b505050505081565b600160009054906101000a900473ffffffffffffffffffffffffffffffffffffffff1681565b3373ffffffffffffffffffffffffffffffffffffffff16600160009054906101000a900473ffffffffffffffffffffffffffffffffffffffff1673ffffffffffffffffffffffffffffffffffffffff1614610692576040517f08c379a000000000000000000000000000000000000000000000000000000000815260040180806020018281038252601d8152602001807f4f6e6c792073656c6c65722063616e207369676e20636f6e747261637400000081525060200191505060405180910390fd5b6001600681111561069f57fe5b6000809054906101000a900460ff1660068111156106b957fe5b1461072c576040517f08c379a00000000000000000000000000000000000000000000000000000000081526004018080602001828103825260148152602001807f57726f6e6720636f6e747261637420737461746500000000000000000000000081525060200191505060405180910390fd5b60026000806101000a81548160ff0219169083600681111561074a57fe5b021790555033600260006101000a81548173ffffffffffffffffffffffffffffffffffffffff021916908373ffffffffffffffffffffffffffffffffffffffff160217905550565b6000600681111561079f57fe5b6000809054906101000a900460ff1660068111156107b957fe5b1461082c576040517f08c379a00000000000000000000000000000000000000000000000000000000081526004018080602001828103825260148152602001807f57726f6e6720636f6e747261637420737461746500000000000000000000000081525060200191505060405180910390fd5b60016000806101000a81548160ff0219169083600681111561084a57fe5b021790555033600260006101000a81548173ffffffffffffffffffffffffffffffffffffffff021916908373ffffffffffffffffffffffffffffffffffffffff160217905550565b3373ffffffffffffffffffffffffffffffffffffffff16600260009054906101000a900473ffffffffffffffffffffffffffffffffffffffff1673ffffffffffffffffffffffffffffffffffffffff1614610938576040517f08c379a00000000000000000000000000000000000000000000000000000000081526004018080602001828103825260238152602001806114576023913960400191505060405180910390fd5b6004600681111561094557fe5b6000809054906101000a900460ff16600681111561095f57fe5b146109d2576040517f08c379a00000000000000000000000000000000000000000000000000000000081526004018080602001828103825260148152602001807f57726f6e6720636f6e747261637420737461746500000000000000000000000081525060200191505060405180910390fd5b600754600854340114610a30576040517f08c379a000000000000000000000000000000000000000000000000000000000815260040180806020018281038252603f8152602001806113dc603f913960400191505060405180910390fd5b60056000806101000a81548160ff02191690836006811115610a4e57fe5b0217905550600160009054906101000a900473ffffffffffffffffffffffffffffffffffffffff1673ffffffffffffffffffffffffffffffffffffffff166108fc600654600754039081150290604051600060405180830381858888f19350505050158015610ac1573d6000803e3d6000fd5b50600060019054906101000a900473ffffffffffffffffffffffffffffffffffffffff1673ffffffffffffffffffffffffffffffffffffffff166108fc6006549081150290604051600060405180830381858888f19350505050158015610b2c573d6000803e3d6000fd5b50565b3373ffffffffffffffffffffffffffffffffffffffff16600260009054906101000a900473ffffffffffffffffffffffffffffffffffffffff1673ffffffffffffffffffffffffffffffffffffffff1614610bf2576040517f08c379a000000000000000000000000000000000000000000000000000000000815260040180806020018281038252601c8152602001807f4f6e6c792062757965722063616e207369676e20636f6e74726163740000000081525060200191505060405180910390fd5b60026006811115610bff57fe5b6000809054906101000a900460ff166006811115610c1957fe5b14610c8c576040517f08c379a00000000000000000000000000000000000000000000000000000000081526004018080602001828103825260148152602001807f57726f6e6720636f6e747261637420737461746500000000000000000000000081525060200191505060405180910390fd5b606460016007540281610c9b57fe5b043410158015610cad57506007543411155b610d02576040517f08c379a000000000000000000000000000000000000000000000000000000000815260040180806020018281038252603c81526020018061141b603c913960400191505060405180910390fd5b60036000806101000a81548160ff02191690836006811115610d2057fe5b021790555034600881905550621275004201600981905550565b600260009054906101000a900473ffffffffffffffffffffffffffffffffffffffff1681565b6000809054906101000a900460ff1681565b600060019054906101000a900473ffffffffffffffffffffffffffffffffffffffff1681565b60075481565b60095481565b3373ffffffffffffffffffffffffffffffffffffffff16600260009054906101000a900473ffffffffffffffffffffffffffffffffffffffff1673ffffffffffffffffffffffffffffffffffffffff161480610e0257504260095411155b610e57576040517f08c379a00000000000000000000000000000000000000000000000000000000081526004018080602001828103825260338152602001806113816033913960400191505060405180910390fd5b60046006811115610e6457fe5b6000809054906101000a900460ff166006811115610e7e57fe5b14610ef1576040517f08c379a00000000000000000000000000000000000000000000000000000000081526004018080602001828103825260148152602001807f57726f6e6720636f6e747261637420737461746500000000000000000000000081525060200191505060405180910390fd5b60066000806101000a81548160ff02191690836006811115610f0f57fe5b0217905550600160009054906101000a900473ffffffffffffffffffffffffffffffffffffffff1673ffffffffffffffffffffffffffffffffffffffff166108fc600654600854039081150290604051600060405180830381858888f19350505050158015610f82573d6000803e3d6000fd5b50600060019054906101000a900473ffffffffffffffffffffffffffffffffffffffff1673ffffffffffffffffffffffffffffffffffffffff166108fc6006549081150290604051600060405180830381858888f19350505050158015610fed573d6000803e3d6000fd5b50565b60065481565b3373ffffffffffffffffffffffffffffffffffffffff16600060019054906101000a900473ffffffffffffffffffffffffffffffffffffffff1673ffffffffffffffffffffffffffffffffffffffff161461109c576040517f08c379a00000000000000000000000000000000000000000000000000000000081526004018080602001828103825260288152602001806113b46028913960400191505060405180910390fd5b600360068111156110a957fe5b6000809054906101000a900460ff1660068111156110c357fe5b14611136576040517f08c379a00000000000000000000000000000000000000000000000000000000081526004018080602001828103825260148152602001807f57726f6e6720636f6e747261637420737461746500000000000000000000000081525060200191505060405180910390fd5b8015611188576001600a60006101000a81548160ff0219169083600281111561115b57fe5b021790555060046000806101000a81548160ff0219169083600681111561117e57fe5b021790555061123b565b6000600a60006101000a81548160ff021916908360028111156111a757fe5b021790555060008060006101000a81548160ff021916908360068111156111ca57fe5b0217905550600260009054906101000a900473ffffffffffffffffffffffffffffffffffffffff1673ffffffffffffffffffffffffffffffffffffffff166108fc6008549081150290604051600060405180830381858888f19350505050158015611239573d6000803e3d6000fd5b505b50565b60085481565b60038054600181600116156101000203166002900480601f0160208091040260200160405190810160405280929190818152602001828054600181600116156101000203166002900480156112da5780601f106112af576101008083540402835291602001916112da565b820191906000526020600020905b8154815290600101906020018083116112bd57829003601f168201915b505050505081565b60058054600181600116156101000203166002900480601f0160208091040260200160405190810160405280929190818152602001828054600181600116156101000203166002900480156113785780601f1061134d57610100808354040283529160200191611378565b820191906000526020600020905b81548152906001019060200180831161135b57829003601f168201915b50505050508156fe4f6e6c792062757965722063616e207769746864726177206265666f7265207472616e73616374696f6e20646561646c696e654f6e6c79204167656e742063616e2072657669657720636c6f73696e6720636f6e646974696f6e734275796572206e6565647320746f20706179207468652072657374206f662074686520636f737420746f2066696e616c697a65207472616e73616374696f6e4275796572206e6565647320746f206465706f736974206265747765656e2031302520616e64203130302520746f207369676e20636f6e74726163744f6e6c792062757965722063616e2066696e616c697a65207472616e73616374696f6ea265627a7a72315820fc1467328c8154606051f9da55a17291e408d9190525fb5401f4e23384c65dd064736f6c634300051100325072696365206e6565647320746f206265206d6f7265207468616e204167656e742066656521",
  "source": "pragma solidity >=0.4.25 <0.6.0;\r\n\r\ncontract HomeTransaction {\r\n    // Constants\r\n    uint constant timeBetweenDepositAndFinalization = 14 days;\r\n    uint constant depositPercentage = 1;\r\n\r\n    enum ContractState {\r\n        WaitingBuyerInterest,\r\n        WaitingSellerSignature,\r\n        WaitingBuyerSignature,\r\n        WaitingAgentReview,\r\n        WaitingFinalization,\r\n        Finalized,\r\n        Rejected }\r\n    ContractState public contractState = ContractState.WaitingBuyerInterest;\r\n\r\n    \r\n    // Roles acting on contract\r\n    address payable public Agent;\r\n    address payable public seller;\r\n    address payable public buyer;\r\n\r\n    // Contract details\r\n    string public homeAddress;\r\n    string public zip;\r\n    string public city;\r\n    uint public AgentFee;\r\n    uint public price;\r\n\r\n    // Set when buyer signs and pays deposit\r\n    uint public deposit;\r\n    uint public finalizeDeadline;\r\n\r\n    // Set when Agent reviews closing conditions\r\n    enum ClosingConditionsReview { Pending, Accepted, Rejected }\r\n    ClosingConditionsReview closingConditionsReview = ClosingConditionsReview.Pending;\r\n\r\n    constructor(\r\n        string memory _address,\r\n        string memory _zip,\r\n        string memory _city,\r\n        uint _AgentFee,\r\n        uint _price,\r\n        address payable _Agent,\r\n        address payable _seller,\r\n        address payable _buyer) public {\r\n        require(_price >= _AgentFee, \"Price needs to be more than Agent fee!\");\r\n\r\n        Agent = _Agent;\r\n        seller = _seller;\r\n        buyer = _buyer;\r\n        homeAddress = _address;\r\n        zip = _zip;\r\n        city = _city;\r\n        price = _price;\r\n        AgentFee = _AgentFee;\r\n    }\r\n\r\n       function buyerShowsInterest() public payable {\r\n        \r\n\r\n        require(contractState == ContractState.WaitingBuyerInterest, \"Wrong contract state\");\r\n\r\n        contractState = ContractState.WaitingSellerSignature;\r\n        buyer=msg.sender; //setting seller address\r\n    }\r\n    function sellerSignContract() public payable {\r\n        require(seller == msg.sender, \"Only seller can sign contract\");\r\n\r\n        require(contractState == ContractState.WaitingSellerSignature, \"Wrong contract state\");\r\n\r\n        contractState = ContractState.WaitingBuyerSignature;\r\n        buyer=msg.sender; //setting seller address\r\n    }\r\n\r\n    function buyerSignContractAndPayDeposit() public payable {\r\n        require(buyer == msg.sender, \"Only buyer can sign contract\");\r\n\r\n        require(contractState == ContractState.WaitingBuyerSignature, \"Wrong contract state\");\r\n    \r\n        require(msg.value >= price*depositPercentage/100 && msg.value <= price, \"Buyer needs to deposit between 10% and 100% to sign contract\");\r\n\r\n        contractState = ContractState.WaitingAgentReview;\r\n\r\n        deposit = msg.value;\r\n        finalizeDeadline = now + timeBetweenDepositAndFinalization;\r\n    }\r\n\r\n    function AgentReviewedClosingConditions(bool accepted) public {\r\n        require(Agent == msg.sender, \"Only Agent can review closing conditions\");\r\n\r\n        require(contractState == ContractState.WaitingAgentReview, \"Wrong contract state\");\r\n        \r\n        if (accepted) {\r\n            closingConditionsReview = ClosingConditionsReview.Accepted;\r\n            contractState = ContractState.WaitingFinalization;\r\n        } else {\r\n            closingConditionsReview = ClosingConditionsReview.Pending;\r\n            contractState = ContractState.WaitingBuyerInterest;\r\n            \r\n            buyer.transfer(deposit);\r\n        }\r\n    }\r\n\r\n    function buyerFinalizeTransaction() public payable {\r\n        require(buyer == msg.sender, \"Only buyer can finalize transaction\");\r\n\r\n        require(contractState == ContractState.WaitingFinalization, \"Wrong contract state\");\r\n\r\n        require(msg.value + deposit == price, \"Buyer needs to pay the rest of the cost to finalize transaction\");\r\n\r\n        contractState = ContractState.Finalized;\r\n\r\n        seller.transfer(price-AgentFee);\r\n        Agent.transfer(AgentFee);\r\n    }\r\n\r\n    function anyWithdrawFromTransaction() public payable{\r\n        require(buyer == msg.sender || finalizeDeadline <= now, \"Only buyer can withdraw before transaction deadline\");\r\n\r\n        require(contractState == ContractState.WaitingFinalization, \"Wrong contract state\");\r\n\r\n       contractState = ContractState.Rejected;\r\n\r\n        seller.transfer(deposit-AgentFee);\r\n        Agent.transfer(AgentFee);\r\n    }\r\n}\r\n",
  "sourcePath": "C:/Users/User/Desktop/Smart Contract/project/contracts/HomeTransaction.sol",
  "compiler": {
    "name": "solc",
    "version": "0.5.17+commit.d19bba13.Emscripten.clang"
  },
  "schemaVersion": "3.4.1",
  "updatedAt": "2021-05-28T03:09:51.065Z",
  "devdoc": {
    "methods": {}
  },
  "userdoc": {
    "methods": {}
  }
}