{
  "contractName": "PropertyContract",
  "abi": [
    {
      "inputs": [],
      "payable": false,
      "stateMutability": "nonpayable",
      "type": "constructor"
    },
    {
      "anonymous": false,
      "inputs": [
        {
          "indexed": false,
          "internalType": "address",
          "name": "_owner",
          "type": "address"
        },
        {
          "indexed": false,
          "internalType": "uint256",
          "name": "_PropID",
          "type": "uint256"
        }
      ],
      "name": "Add",
      "type": "event"
    },
    {
      "anonymous": false,
      "inputs": [
        {
          "indexed": false,
          "internalType": "address",
          "name": "ownerAddress",
          "type": "address"
        },
        {
          "indexed": false,
          "internalType": "bool",
          "name": "isMember",
          "type": "bool"
        }
      ],
      "name": "Onwershipchanged",
      "type": "event"
    },
    {
      "constant": true,
      "inputs": [
        {
          "internalType": "address",
          "name": "",
          "type": "address"
        },
        {
          "internalType": "uint256",
          "name": "",
          "type": "uint256"
        }
      ],
      "name": "__ownedProperty",
      "outputs": [
        {
          "internalType": "address",
          "name": "ownerAddress",
          "type": "address"
        },
        {
          "internalType": "string",
          "name": "location",
          "type": "string"
        },
        {
          "internalType": "uint256",
          "name": "cost",
          "type": "uint256"
        },
        {
          "internalType": "uint256",
          "name": "PropID",
          "type": "uint256"
        },
        {
          "internalType": "enum PropertyContract.PropStatusType",
          "name": "PropStatus",
          "type": "uint8"
        }
      ],
      "payable": false,
      "stateMutability": "view",
      "type": "function"
    },
    {
      "constant": true,
      "inputs": [],
      "name": "totalPropCounter",
      "outputs": [
        {
          "internalType": "uint256",
          "name": "",
          "type": "uint256"
        }
      ],
      "payable": false,
      "stateMutability": "view",
      "type": "function"
    },
    {
      "constant": false,
      "inputs": [
        {
          "internalType": "address",
          "name": "propertyOwner",
          "type": "address"
        },
        {
          "internalType": "string",
          "name": "_location",
          "type": "string"
        },
        {
          "internalType": "uint256",
          "name": "_cost",
          "type": "uint256"
        }
      ],
      "name": "addProperty",
      "outputs": [
        {
          "internalType": "uint256",
          "name": "",
          "type": "uint256"
        }
      ],
      "payable": false,
      "stateMutability": "nonpayable",
      "type": "function"
    },
    {
      "constant": true,
      "inputs": [
        {
          "internalType": "address",
          "name": "_PropHolder",
          "type": "address"
        }
      ],
      "name": "getNoOfProperties",
      "outputs": [
        {
          "internalType": "uint256",
          "name": "",
          "type": "uint256"
        }
      ],
      "payable": false,
      "stateMutability": "view",
      "type": "function"
    },
    {
      "constant": true,
      "inputs": [],
      "name": "getTotalPropertyCounter",
      "outputs": [
        {
          "internalType": "uint256",
          "name": "",
          "type": "uint256"
        }
      ],
      "payable": false,
      "stateMutability": "view",
      "type": "function"
    },
    {
      "constant": true,
      "inputs": [
        {
          "internalType": "address",
          "name": "_PropHolder",
          "type": "address"
        }
      ],
      "name": "getUnsoldPropertyIDs",
      "outputs": [
        {
          "internalType": "uint256[]",
          "name": "",
          "type": "uint256[]"
        }
      ],
      "payable": false,
      "stateMutability": "view",
      "type": "function"
    },
    {
      "constant": false,
      "inputs": [
        {
          "internalType": "address",
          "name": "_PropHolder",
          "type": "address"
        },
        {
          "internalType": "uint256",
          "name": "_PropID",
          "type": "uint256"
        }
      ],
      "name": "getPropertyDetails",
      "outputs": [
        {
          "internalType": "enum PropertyContract.PropStatusType",
          "name": "",
          "type": "uint8"
        },
        {
          "internalType": "uint256",
          "name": "",
          "type": "uint256"
        },
        {
          "internalType": "string",
          "name": "",
          "type": "string"
        }
      ],
      "payable": false,
      "stateMutability": "nonpayable",
      "type": "function"
    },
    {
      "constant": false,
      "inputs": [
        {
          "internalType": "uint256",
          "name": "_PropID",
          "type": "uint256"
        },
        {
          "internalType": "uint256",
          "name": "_newVal",
          "type": "uint256"
        }
      ],
      "name": "EditPropertyValue",
      "outputs": [
        {
          "internalType": "uint256",
          "name": "",
          "type": "uint256"
        }
      ],
      "payable": false,
      "stateMutability": "nonpayable",
      "type": "function"
    },
    {
      "constant": false,
      "inputs": [
        {
          "internalType": "uint256",
          "name": "_PropID",
          "type": "uint256"
        },
        {
          "internalType": "address",
          "name": "_NewPropHolder",
          "type": "address"
        }
      ],
      "name": "BuyProperty",
      "outputs": [
        {
          "internalType": "bool",
          "name": "",
          "type": "bool"
        }
      ],
      "payable": false,
      "stateMutability": "nonpayable",
      "type": "function"
    }
  ],
  "bytecode": "0x608060405234801561001057600080fd5b5060008081905550611565806100276000396000f3fe608060405234801561001057600080fd5b50600436106100935760003560e01c806332cf859f1161006657806332cf859f146102195780634844f490146102715780634e057fec146103545780635ceb78ff146103ba57806389589e7e1461045357610093565b80631a234f41146100985780631ccc365f14610191578063235ebe6d146101af5780632bf43981146101cd575b600080fd5b61017b600480360360608110156100ae57600080fd5b81019080803573ffffffffffffffffffffffffffffffffffffffff169060200190929190803590602001906401000000008111156100eb57600080fd5b8201836020820111156100fd57600080fd5b8035906020019184600183028401116401000000008311171561011f57600080fd5b91908080601f016020809104026020016040519081016040528093929190818152602001838380828437600081840152601f19601f82011690508083019250505050505050919291929080359060200190929190505050610570565b6040518082815260200191505060405180910390f35b6101996107af565b6040518082815260200191505060405180910390f35b6101b76107b8565b6040518082815260200191505060405180910390f35b610203600480360360408110156101e357600080fd5b8101908080359060200190929190803590602001909291905050506107be565b6040518082815260200191505060405180910390f35b61025b6004803603602081101561022f57600080fd5b81019080803573ffffffffffffffffffffffffffffffffffffffff169060200190929190505050610a18565b6040518082815260200191505060405180910390f35b6102bd6004803603604081101561028757600080fd5b81019080803573ffffffffffffffffffffffffffffffffffffffff16906020019092919080359060200190929190505050610a69565b604051808460018111156102cd57fe5b60ff16815260200183815260200180602001828103825283818151815260200191508051906020019080838360005b838110156103175780820151818401526020810190506102fc565b50505050905090810190601f1680156103445780820380516001836020036101000a031916815260200191505b5094505050505060405180910390f35b6103a06004803603604081101561036a57600080fd5b8101908080359060200190929190803573ffffffffffffffffffffffffffffffffffffffff169060200190929190505050610cff565b604051808215151515815260200191505060405180910390f35b6103fc600480360360208110156103d057600080fd5b81019080803573ffffffffffffffffffffffffffffffffffffffff16906020019092919050505061114c565b6040518080602001828103825283818151815260200191508051906020019060200280838360005b8381101561043f578082015181840152602081019050610424565b505050509050019250505060405180910390f35b61049f6004803603604081101561046957600080fd5b81019080803573ffffffffffffffffffffffffffffffffffffffff16906020019092919080359060200190929190505050611326565b604051808673ffffffffffffffffffffffffffffffffffffffff1673ffffffffffffffffffffffffffffffffffffffff168152602001806020018581526020018481526020018360018111156104f157fe5b60ff168152602001828103825286818151815260200191508051906020019080838360005b83811015610531578082015181840152602081019050610516565b50505050905090810190601f16801561055e5780820380516001836020036101000a031916815260200191505b50965050505050505060405180910390f35b600060016000540160008190555061058661143b565b6040518060a001604052808673ffffffffffffffffffffffffffffffffffffffff1681526020018581526020018481526020016000548152602001600060018111156105ce57fe5b8152509050600160008673ffffffffffffffffffffffffffffffffffffffff1673ffffffffffffffffffffffffffffffffffffffff168152602001908152602001600020819080600181540180825580915050906001820390600052602060002090600502016000909192909190915060008201518160000160006101000a81548173ffffffffffffffffffffffffffffffffffffffff021916908373ffffffffffffffffffffffffffffffffffffffff16021790555060208201518160010190805190602001906106a192919061148b565b50604082015181600201556060820151816003015560808201518160040160006101000a81548160ff021916908360018111156106da57fe5b02179055505050507f2728c9d3205d667bbc0eefdfeda366261b4d021949630c047f3e5834b30611ab85600054604051808373ffffffffffffffffffffffffffffffffffffffff1673ffffffffffffffffffffffffffffffffffffffff1681526020018281526020019250505060405180910390a184600260008054815260200190815260200160002060006101000a81548173ffffffffffffffffffffffffffffffffffffffff021916908373ffffffffffffffffffffffffffffffffffffffff1602179055506000549150509392505050565b60008054905090565b60005481565b600080600090505b600160006002600087815260200190815260200160002060009054906101000a900473ffffffffffffffffffffffffffffffffffffffff1673ffffffffffffffffffffffffffffffffffffffff1673ffffffffffffffffffffffffffffffffffffffff16815260200190815260200160002080549050811015610a105783600160006002600088815260200190815260200160002060009054906101000a900473ffffffffffffffffffffffffffffffffffffffff1673ffffffffffffffffffffffffffffffffffffffff1673ffffffffffffffffffffffffffffffffffffffff16815260200190815260200160002082815481106108c157fe5b9060005260206000209060050201600301541415610a035782600160006002600088815260200190815260200160002060009054906101000a900473ffffffffffffffffffffffffffffffffffffffff1673ffffffffffffffffffffffffffffffffffffffff1673ffffffffffffffffffffffffffffffffffffffff168152602001908152602001600020828154811061095757fe5b906000526020600020906005020160020181905550600160006002600087815260200190815260200160002060009054906101000a900473ffffffffffffffffffffffffffffffffffffffff1673ffffffffffffffffffffffffffffffffffffffff1673ffffffffffffffffffffffffffffffffffffffff16815260200190815260200160002081815481106109e957fe5b906000526020600020906005020160020154915050610a12565b80806001019150506107c6565b505b92915050565b600080600160008473ffffffffffffffffffffffffffffffffffffffff1673ffffffffffffffffffffffffffffffffffffffff16815260200190815260200160002080549050905080915050919050565b600080606060008090505b600160008773ffffffffffffffffffffffffffffffffffffffff1673ffffffffffffffffffffffffffffffffffffffff16815260200190815260200160002080549050811015610cf65784600160008873ffffffffffffffffffffffffffffffffffffffff1673ffffffffffffffffffffffffffffffffffffffff1681526020019081526020016000208281548110610b0957fe5b9060005260206000209060050201600301541415610ce957600160008773ffffffffffffffffffffffffffffffffffffffff1673ffffffffffffffffffffffffffffffffffffffff1681526020019081526020016000208181548110610b6b57fe5b906000526020600020906005020160040160009054906101000a900460ff16600160008873ffffffffffffffffffffffffffffffffffffffff1673ffffffffffffffffffffffffffffffffffffffff1681526020019081526020016000208281548110610bd457fe5b906000526020600020906005020160020154600160008973ffffffffffffffffffffffffffffffffffffffff1673ffffffffffffffffffffffffffffffffffffffff1681526020019081526020016000208381548110610c3057fe5b9060005260206000209060050201600101808054600181600116156101000203166002900480601f016020809104026020016040519081016040528092919081815260200182805460018160011615610100020316600290048015610cd65780601f10610cab57610100808354040283529160200191610cd6565b820191906000526020600020905b815481529060010190602001808311610cb957829003601f168201915b5050505050905093509350935050610cf8565b8080600101915050610a74565b505b9250925092565b600080600090505b600160006002600087815260200190815260200160002060009054906101000a900473ffffffffffffffffffffffffffffffffffffffff1673ffffffffffffffffffffffffffffffffffffffff1673ffffffffffffffffffffffffffffffffffffffff168152602001908152602001600020805490508110156111455783600160006002600088815260200190815260200160002060009054906101000a900473ffffffffffffffffffffffffffffffffffffffff1673ffffffffffffffffffffffffffffffffffffffff1673ffffffffffffffffffffffffffffffffffffffff1681526020019081526020016000208281548110610e0257fe5b906000526020600020906005020160030154141561113857600160006002600087815260200190815260200160002060009054906101000a900473ffffffffffffffffffffffffffffffffffffffff1673ffffffffffffffffffffffffffffffffffffffff1673ffffffffffffffffffffffffffffffffffffffff1681526020019081526020016000208181548110610e9757fe5b906000526020600020906005020160000160009054906101000a900473ffffffffffffffffffffffffffffffffffffffff1673ffffffffffffffffffffffffffffffffffffffff168373ffffffffffffffffffffffffffffffffffffffff1614158015610fb5575060006001811115610f0c57fe5b600160006002600088815260200190815260200160002060009054906101000a900473ffffffffffffffffffffffffffffffffffffffff1673ffffffffffffffffffffffffffffffffffffffff1673ffffffffffffffffffffffffffffffffffffffff1681526020019081526020016000208281548110610f8957fe5b906000526020600020906005020160040160009054906101000a900460ff166001811115610fb357fe5b145b156111375782600160006002600088815260200190815260200160002060009054906101000a900473ffffffffffffffffffffffffffffffffffffffff1673ffffffffffffffffffffffffffffffffffffffff1673ffffffffffffffffffffffffffffffffffffffff168152602001908152602001600020828154811061103857fe5b906000526020600020906005020160000160006101000a81548173ffffffffffffffffffffffffffffffffffffffff021916908373ffffffffffffffffffffffffffffffffffffffff16021790555060018060006002600088815260200190815260200160002060009054906101000a900473ffffffffffffffffffffffffffffffffffffffff1673ffffffffffffffffffffffffffffffffffffffff1673ffffffffffffffffffffffffffffffffffffffff168152602001908152602001600020828154811061110557fe5b906000526020600020906005020160040160006101000a81548160ff0219169083600181111561113157fe5b02179055505b5b8080600101915050610d07565b5092915050565b606080600160008473ffffffffffffffffffffffffffffffffffffffff1673ffffffffffffffffffffffffffffffffffffffff168152602001908152602001600020805490506040519080825280602002602001820160405280156111c05781602001602082028038833980820191505090505b50905060008090505b600160008573ffffffffffffffffffffffffffffffffffffffff1673ffffffffffffffffffffffffffffffffffffffff1681526020019081526020016000208054905081101561131c576000600181111561122057fe5b600160008673ffffffffffffffffffffffffffffffffffffffff1673ffffffffffffffffffffffffffffffffffffffff168152602001908152602001600020828154811061126a57fe5b906000526020600020906005020160040160009054906101000a900460ff16600181111561129457fe5b141561130f57600160008573ffffffffffffffffffffffffffffffffffffffff1673ffffffffffffffffffffffffffffffffffffffff16815260200190815260200160002081815481106112e457fe5b90600052602060002090600502016003015482828151811061130257fe5b6020026020010181815250505b80806001019150506111c9565b5080915050919050565b6001602052816000526040600020818154811061133f57fe5b9060005260206000209060050201600091509150508060000160009054906101000a900473ffffffffffffffffffffffffffffffffffffffff1690806001018054600181600116156101000203166002900480601f0160208091040260200160405190810160405280929190818152602001828054600181600116156101000203166002900480156114125780601f106113e757610100808354040283529160200191611412565b820191906000526020600020905b8154815290600101906020018083116113f557829003601f168201915b5050505050908060020154908060030154908060040160009054906101000a900460ff16905085565b6040518060a00160405280600073ffffffffffffffffffffffffffffffffffffffff1681526020016060815260200160008152602001600081526020016000600181111561148557fe5b81525090565b828054600181600116156101000203166002900490600052602060002090601f016020900481019282601f106114cc57805160ff19168380011785556114fa565b828001600101855582156114fa579182015b828111156114f95782518255916020019190600101906114de565b5b509050611507919061150b565b5090565b61152d91905b80821115611529576000816000905550600101611511565b5090565b9056fea265627a7a72315820f709c39496403b26c8a7af10309bce5e064f966de0345b67bbbe45599cc529ab64736f6c63430005100032",
  "source": "pragma solidity ^0.5.11;\ncontract PropertyContract\n{\n \n enum PropStatusType\n    {\n    Pending, //0\n    Sold //1\n    }\n struct Property\n {\n address  ownerAddress;\n string location;\n uint cost;\n uint PropID;\n PropStatusType PropStatus;\n }\n uint public totalPropCounter; //total no oÿ lands via this contract at any time\n constructor () public\n {\n totalPropCounter = 0;\n }\n\n//land addition event\n event Add(address _owner, uint _PropID);\n event Onwershipchanged(address ownerAddress, bool isMember);\n //one account can hold many lands (many landTokens, each token one land)\n mapping (address => Property[]) public __ownedProperty;\n mapping(uint=> address) getAddressFromPropID;\n\n\n function addProperty(address propertyOwner,string memory _location, uint _cost) public returns (uint)\n {\n totalPropCounter = totalPropCounter + 1;\n \n Property memory myProp = Property(\n {\n ownerAddress: propertyOwner,\n location: _location,\n cost: _cost,\n PropID: totalPropCounter,\n PropStatus: PropStatusType.Pending });\n  __ownedProperty[propertyOwner].push(myProp);\n emit Add(propertyOwner, totalPropCounter);\n getAddressFromPropID[totalPropCounter]=propertyOwner;\n return totalPropCounter;\n }\n //GET TOTAL NO OF LANDS OWNED BY AN ACCOUNT\n function getNoOfProperties(address _PropHolder) view public returns (uint)\n {\n uint index;\n index = __ownedProperty[_PropHolder].length;\n return index;\n }\n //get total lands counter\n function getTotalPropertyCounter() public view returns (uint)\n {\n return totalPropCounter;\n }\n  function getUnsoldPropertyIDs(address _PropHolder) public view returns (uint[] memory)\n {\n   uint[] memory arrPropID = new uint[](__ownedProperty[_PropHolder].length);\n   for(uint i=0; i < (__ownedProperty[_PropHolder].length);i++)\n {\n    \n    if (__ownedProperty[_PropHolder][i].PropStatus==PropStatusType.Pending ){\n    arrPropID[i]=__ownedProperty[_PropHolder][i].PropID;}\n \n }\n return arrPropID;\n }\n \n   function getPropertyDetails(address _PropHolder, uint _PropID) public  returns (PropStatusType , uint, string memory)\n {\n    \n   \n   for(uint i=0; i < (__ownedProperty[_PropHolder].length);i++)\n {\n    \n    if (__ownedProperty[_PropHolder][i].PropID==_PropID ){\n \n         return (__ownedProperty[_PropHolder][i].PropStatus, __ownedProperty[_PropHolder][i].cost, __ownedProperty[_PropHolder][i].location);\n        }\n   \n \n }\n\n }\n \n function EditPropertyValue(uint _PropID,uint _newVal) public returns (uint)\n {\n        \n        for(uint i=0; i < __ownedProperty[getAddressFromPropID[_PropID]].length;i++){\n            if ( __ownedProperty[getAddressFromPropID[_PropID]][i].PropID==_PropID ){\n                __ownedProperty[getAddressFromPropID[_PropID]][i].cost=_newVal;\n                 return __ownedProperty[getAddressFromPropID[_PropID]][i].cost;\n        \n     }}}\n \n  function BuyProperty(uint _PropID,address _NewPropHolder) public returns (bool)\n {\n    \n    \n    \n      for(uint i=0; i < __ownedProperty[getAddressFromPropID[_PropID]].length;i++){\n            if ( __ownedProperty[getAddressFromPropID[_PropID]][i].PropID==_PropID ){\n                if(_NewPropHolder!=__ownedProperty[getAddressFromPropID[_PropID]][i].ownerAddress && __ownedProperty[getAddressFromPropID[_PropID]][i].PropStatus== PropStatusType.Pending){\n                    __ownedProperty[getAddressFromPropID[_PropID]][i].ownerAddress=_NewPropHolder ;\n                    __ownedProperty[getAddressFromPropID[_PropID]][i].PropStatus= PropStatusType.Sold;\n     \n}}}}\n \n}",
  "sourcePath": "C:/Users/User/Desktop/Smart Contract/project/contracts/PropertyContract.sol",
  "compiler": {
    "name": "solc",
    "version": "0.5.16+commit.9c3226ce.Emscripten.clang"
  },
  "schemaVersion": "3.4.1",
  "updatedAt": "2021-05-11T16:29:58.260Z",
  "networkType": "ethereum",
  "devdoc": {
    "methods": {}
  },
  "userdoc": {
    "methods": {}
  }
}